{
  "contracts/FinalBancor.sol": {
    "FinalBancor": {
      "abi": [
        {
          "inputs": [
            {
              "internalType": "string",
              "name": "name",
              "type": "string"
            },
            {
              "internalType": "string",
              "name": "symbol",
              "type": "string"
            },
            {
              "internalType": "uint256",
              "name": "_reserveRatio",
              "type": "uint256"
            }
          ],
          "stateMutability": "nonpayable",
          "type": "constructor"
        },
        {
          "inputs": [
            {
              "internalType": "address",
              "name": "spender",
              "type": "address"
            },
            {
              "internalType": "uint256",
              "name": "allowance",
              "type": "uint256"
            },
            {
              "internalType": "uint256",
              "name": "needed",
              "type": "uint256"
            }
          ],
          "name": "ERC20InsufficientAllowance",
          "type": "error"
        },
        {
          "inputs": [
            {
              "internalType": "address",
              "name": "sender",
              "type": "address"
            },
            {
              "internalType": "uint256",
              "name": "balance",
              "type": "uint256"
            },
            {
              "internalType": "uint256",
              "name": "needed",
              "type": "uint256"
            }
          ],
          "name": "ERC20InsufficientBalance",
          "type": "error"
        },
        {
          "inputs": [
            {
              "internalType": "address",
              "name": "approver",
              "type": "address"
            }
          ],
          "name": "ERC20InvalidApprover",
          "type": "error"
        },
        {
          "inputs": [
            {
              "internalType": "address",
              "name": "receiver",
              "type": "address"
            }
          ],
          "name": "ERC20InvalidReceiver",
          "type": "error"
        },
        {
          "inputs": [
            {
              "internalType": "address",
              "name": "sender",
              "type": "address"
            }
          ],
          "name": "ERC20InvalidSender",
          "type": "error"
        },
        {
          "inputs": [
            {
              "internalType": "address",
              "name": "spender",
              "type": "address"
            }
          ],
          "name": "ERC20InvalidSpender",
          "type": "error"
        },
        {
          "anonymous": false,
          "inputs": [
            {
              "indexed": true,
              "internalType": "address",
              "name": "owner",
              "type": "address"
            },
            {
              "indexed": true,
              "internalType": "address",
              "name": "spender",
              "type": "address"
            },
            {
              "indexed": false,
              "internalType": "uint256",
              "name": "value",
              "type": "uint256"
            }
          ],
          "name": "Approval",
          "type": "event"
        },
        {
          "anonymous": false,
          "inputs": [
            {
              "indexed": true,
              "internalType": "address",
              "name": "from",
              "type": "address"
            },
            {
              "indexed": true,
              "internalType": "address",
              "name": "to",
              "type": "address"
            },
            {
              "indexed": false,
              "internalType": "uint256",
              "name": "value",
              "type": "uint256"
            }
          ],
          "name": "Transfer",
          "type": "event"
        },
        {
          "stateMutability": "payable",
          "type": "fallback"
        },
        {
          "inputs": [],
          "name": "MAX_RESERVE_RATIO",
          "outputs": [
            {
              "internalType": "uint256",
              "name": "",
              "type": "uint256"
            }
          ],
          "stateMutability": "view",
          "type": "function"
        },
        {
          "inputs": [],
          "name": "ad",
          "outputs": [
            {
              "internalType": "address",
              "name": "",
              "type": "address"
            }
          ],
          "stateMutability": "view",
          "type": "function"
        },
        {
          "inputs": [
            {
              "internalType": "address",
              "name": "owner",
              "type": "address"
            },
            {
              "internalType": "address",
              "name": "spender",
              "type": "address"
            }
          ],
          "name": "allowance",
          "outputs": [
            {
              "internalType": "uint256",
              "name": "",
              "type": "uint256"
            }
          ],
          "stateMutability": "view",
          "type": "function"
        },
        {
          "inputs": [
            {
              "internalType": "address",
              "name": "spender",
              "type": "address"
            },
            {
              "internalType": "uint256",
              "name": "value",
              "type": "uint256"
            }
          ],
          "name": "approve",
          "outputs": [
            {
              "internalType": "bool",
              "name": "",
              "type": "bool"
            }
          ],
          "stateMutability": "nonpayable",
          "type": "function"
        },
        {
          "inputs": [
            {
              "internalType": "address",
              "name": "account",
              "type": "address"
            }
          ],
          "name": "balanceOf",
          "outputs": [
            {
              "internalType": "uint256",
              "name": "",
              "type": "uint256"
            }
          ],
          "stateMutability": "view",
          "type": "function"
        },
        {
          "inputs": [
            {
              "internalType": "address",
              "name": "",
              "type": "address"
            }
          ],
          "name": "balances",
          "outputs": [
            {
              "internalType": "uint256",
              "name": "",
              "type": "uint256"
            }
          ],
          "stateMutability": "view",
          "type": "function"
        },
        {
          "inputs": [
            {
              "internalType": "uint256",
              "name": "number",
              "type": "uint256"
            }
          ],
          "name": "bondingCurveCalculations",
          "outputs": [
            {
              "internalType": "uint256",
              "name": "",
              "type": "uint256"
            }
          ],
          "stateMutability": "view",
          "type": "function"
        },
        {
          "inputs": [
            {
              "internalType": "uint256",
              "name": "tokenAmount",
              "type": "uint256"
            }
          ],
          "name": "buyTokensUsingMatic",
          "outputs": [],
          "stateMutability": "payable",
          "type": "function"
        },
        {
          "inputs": [
            {
              "internalType": "uint256",
              "name": "tokenAmount",
              "type": "uint256"
            }
          ],
          "name": "buyTokensusingUSDC",
          "outputs": [],
          "stateMutability": "nonpayable",
          "type": "function"
        },
        {
          "inputs": [
            {
              "internalType": "uint256",
              "name": "tokenAmount",
              "type": "uint256"
            },
            {
              "internalType": "bool",
              "name": "buying",
              "type": "bool"
            }
          ],
          "name": "calculateMaticAmount",
          "outputs": [
            {
              "internalType": "uint256",
              "name": "",
              "type": "uint256"
            }
          ],
          "stateMutability": "view",
          "type": "function"
        },
        {
          "inputs": [
            {
              "internalType": "uint256",
              "name": "tokenAmount",
              "type": "uint256"
            },
            {
              "internalType": "bool",
              "name": "buying",
              "type": "bool"
            }
          ],
          "name": "calculateUSDCAmount",
          "outputs": [
            {
              "internalType": "uint256",
              "name": "",
              "type": "uint256"
            }
          ],
          "stateMutability": "view",
          "type": "function"
        },
        {
          "inputs": [],
          "name": "decimals",
          "outputs": [
            {
              "internalType": "uint8",
              "name": "",
              "type": "uint8"
            }
          ],
          "stateMutability": "view",
          "type": "function"
        },
        {
          "inputs": [],
          "name": "getCurrentPrice",
          "outputs": [
            {
              "internalType": "uint256",
              "name": "",
              "type": "uint256"
            }
          ],
          "stateMutability": "view",
          "type": "function"
        },
        {
          "inputs": [],
          "name": "getLatestPrice",
          "outputs": [
            {
              "internalType": "uint256",
              "name": "",
              "type": "uint256"
            }
          ],
          "stateMutability": "view",
          "type": "function"
        },
        {
          "inputs": [],
          "name": "getMaticBalance",
          "outputs": [
            {
              "internalType": "uint256",
              "name": "",
              "type": "uint256"
            }
          ],
          "stateMutability": "view",
          "type": "function"
        },
        {
          "inputs": [],
          "name": "getUSDCBalance",
          "outputs": [
            {
              "internalType": "uint256",
              "name": "",
              "type": "uint256"
            }
          ],
          "stateMutability": "view",
          "type": "function"
        },
        {
          "inputs": [],
          "name": "name",
          "outputs": [
            {
              "internalType": "string",
              "name": "",
              "type": "string"
            }
          ],
          "stateMutability": "view",
          "type": "function"
        },
        {
          "inputs": [],
          "name": "poolofMattic",
          "outputs": [],
          "stateMutability": "payable",
          "type": "function"
        },
        {
          "inputs": [
            {
              "internalType": "uint256",
              "name": "usdcamount",
              "type": "uint256"
            }
          ],
          "name": "poolofUSDC",
          "outputs": [],
          "stateMutability": "nonpayable",
          "type": "function"
        },
        {
          "inputs": [],
          "name": "reserveRatio",
          "outputs": [
            {
              "internalType": "uint256",
              "name": "",
              "type": "uint256"
            }
          ],
          "stateMutability": "view",
          "type": "function"
        },
        {
          "inputs": [
            {
              "internalType": "uint256",
              "name": "tokenAmount",
              "type": "uint256"
            }
          ],
          "name": "sellTokensUsingMatic",
          "outputs": [],
          "stateMutability": "payable",
          "type": "function"
        },
        {
          "inputs": [
            {
              "internalType": "uint256",
              "name": "tokenAmount",
              "type": "uint256"
            }
          ],
          "name": "sellTokensusingUSDC",
          "outputs": [],
          "stateMutability": "nonpayable",
          "type": "function"
        },
        {
          "inputs": [],
          "name": "supply",
          "outputs": [
            {
              "internalType": "uint256",
              "name": "",
              "type": "uint256"
            }
          ],
          "stateMutability": "view",
          "type": "function"
        },
        {
          "inputs": [],
          "name": "symbol",
          "outputs": [
            {
              "internalType": "string",
              "name": "",
              "type": "string"
            }
          ],
          "stateMutability": "view",
          "type": "function"
        },
        {
          "inputs": [],
          "name": "totalSupply",
          "outputs": [
            {
              "internalType": "uint256",
              "name": "",
              "type": "uint256"
            }
          ],
          "stateMutability": "view",
          "type": "function"
        },
        {
          "inputs": [
            {
              "internalType": "address",
              "name": "to",
              "type": "address"
            },
            {
              "internalType": "uint256",
              "name": "value",
              "type": "uint256"
            }
          ],
          "name": "transfer",
          "outputs": [
            {
              "internalType": "bool",
              "name": "",
              "type": "bool"
            }
          ],
          "stateMutability": "nonpayable",
          "type": "function"
        },
        {
          "inputs": [
            {
              "internalType": "address",
              "name": "from",
              "type": "address"
            },
            {
              "internalType": "address",
              "name": "to",
              "type": "address"
            },
            {
              "internalType": "uint256",
              "name": "value",
              "type": "uint256"
            }
          ],
          "name": "transferFrom",
          "outputs": [
            {
              "internalType": "bool",
              "name": "",
              "type": "bool"
            }
          ],
          "stateMutability": "nonpayable",
          "type": "function"
        },
        {
          "stateMutability": "payable",
          "type": "receive"
        }
      ],
      "evm": {
        "bytecode": {
          "linkReferences": {},
          "object": "6080604052600680546001600160a01b031916735c904bf78caf64f8173112110d179fa0bba42d331790553480156200003757600080fd5b50604051620018dd380380620018dd8339810160408190526200005a91620001a5565b828260036200006a8382620002a7565b506004620000798282620002a7565b505050620f4240811115620000d45760405162461bcd60e51b815260206004820152601560248201527f496e76616c6964207265736572766520726174696f0000000000000000000000604482015260640160405180910390fd5b60055550620003739050565b634e487b7160e01b600052604160045260246000fd5b600082601f8301126200010857600080fd5b81516001600160401b0380821115620001255762000125620000e0565b604051601f8301601f19908116603f01168101908282118183101715620001505762000150620000e0565b816040528381526020925086838588010111156200016d57600080fd5b600091505b8382101562000191578582018301518183018401529082019062000172565b600093810190920192909252949350505050565b600080600060608486031215620001bb57600080fd5b83516001600160401b0380821115620001d357600080fd5b620001e187838801620000f6565b94506020860151915080821115620001f857600080fd5b506200020786828701620000f6565b925050604084015190509250925092565b600181811c908216806200022d57607f821691505b6020821081036200024e57634e487b7160e01b600052602260045260246000fd5b50919050565b601f821115620002a257600081815260208120601f850160051c810160208610156200027d5750805b601f850160051c820191505b818110156200029e5782815560010162000289565b5050505b505050565b81516001600160401b03811115620002c357620002c3620000e0565b620002db81620002d4845462000218565b8462000254565b602080601f831160018114620003135760008415620002fa5750858301515b600019600386901b1c1916600185901b1785556200029e565b600085815260208120601f198616915b82811015620003445788860151825594840194600190910190840162000323565b5085821015620003635787850151600019600388901b60f8161c191681555b5050505050600190811b01905550565b61155a80620003836000396000f3fe60806040526004361061018b5760003560e01c806339f6a925116100e057806395d89b4111610084578063a9536bcb11610061578063a9536bcb14610448578063dd62ed3e14610468578063e7962a80146104ae578063eb91d37e146104ce57005b806395d89b41146103f3578063a31f714f14610408578063a9059cbb1461042857005b80636b2aea05116100bd5780636b2aea051461037557806370a08231146103955780637a721c3c146103cb5780638e15f473146103de57005b806339f6a925146103085780633cfd1ccc146103285780633e1430af1461033d57005b80631190016c1161014757806327e235e31161012457806327e235e3146102975780632a8038b2146102c4578063313ce567146102e457806335c618c31461030057005b80631190016c1461024b57806318160ddd1461026257806323b872dd1461027757005b8063041e79b114610194578063047fc9aa146101a757806306fdde03146101d0578063095ea7b3146101f25780630c7d5cd81461022257806310ded1651461023857005b3661019257005b005b6101926101a2366004611138565b6104e3565b3480156101b357600080fd5b506101bd60075481565b6040519081526020015b60405180910390f35b3480156101dc57600080fd5b506101e56105bf565b6040516101c79190611151565b3480156101fe57600080fd5b5061021261020d3660046111bb565b610651565b60405190151581526020016101c7565b34801561022e57600080fd5b506101bd60055481565b34801561024457600080fd5b50476101bd565b34801561025757600080fd5b506101bd620f424081565b34801561026e57600080fd5b506002546101bd565b34801561028357600080fd5b506102126102923660046111e5565b61066b565b3480156102a357600080fd5b506101bd6102b2366004611221565b60086020526000908152604090205481565b3480156102d057600080fd5b506101bd6102df366004611254565b61068f565b3480156102f057600080fd5b50604051601281526020016101c7565b6101926106e0565b34801561031457600080fd5b50610192610323366004611138565b61076d565b34801561033457600080fd5b506101bd610808565b34801561034957600080fd5b5060065461035d906001600160a01b031681565b6040516001600160a01b0390911681526020016101c7565b34801561038157600080fd5b50610192610390366004611138565b61087d565b3480156103a157600080fd5b506101bd6103b0366004611221565b6001600160a01b031660009081526020819052604090205490565b6101926103d9366004611138565b610973565b3480156103ea57600080fd5b506101bd610a4e565b3480156103ff57600080fd5b506101e5610ae1565b34801561041457600080fd5b50610192610423366004611138565b610af0565b34801561043457600080fd5b506102126104433660046111bb565b610ca4565b34801561045457600080fd5b506101bd610463366004611254565b610cb2565b34801561047457600080fd5b506101bd610483366004611284565b6001600160a01b03918216600090815260016020908152604080832093909416825291909152205490565b3480156104ba57600080fd5b506101bd6104c9366004611138565b610d18565b3480156104da57600080fd5b506101bd610d7d565b60006104f0826001610cb2565b90508034101561053c5760405162461bcd60e51b8152602060048201526012602482015271496e73756666696369656e742046756e647360701b60448201526064015b60405180910390fd5b6105463383610de7565b33600090815260086020526040812080548492906105659084906112cd565b92505081905550816007600082825461057e91906112cd565b909155503390506108fc61059283346112e0565b6040518115909202916000818181858888f193505050501580156105ba573d6000803e3d6000fd5b505050565b6060600380546105ce906112f3565b80601f01602080910402602001604051908101604052809291908181526020018280546105fa906112f3565b80156106475780601f1061061c57610100808354040283529160200191610647565b820191906000526020600020905b81548152906001019060200180831161062a57829003601f168201915b5050505050905090565b60003361065f818585610e1d565b60019150505b92915050565b600033610679858285610e2a565b610684858585610ea8565b506001949350505050565b60008061069a610a4e565b905082156106d35760006106af856001610cb2565b90506305f5e1006106c0838361132d565b6106ca9190611344565b92505050610665565b60006106af856000610cb2565b6000341161073b5760405162461bcd60e51b815260206004820152602260248201527f4e6f2045746865722073656e74207769746820746865207472616e736163746960448201526137b760f11b6064820152608401610533565b604051309081903480156108fc02916000818181858888f19350505050158015610769573d6000803e3d6000fd5b5050565b6006546040516323b872dd60e01b8152336004820152306024820152604481018390526001600160a01b0390911690819081906323b872dd906064016020604051808303816000875af11580156107c8573d6000803e3d6000fd5b505050506040513d601f19601f820116820180604052508101906107ec9190611366565b6105ba5760405162461bcd60e51b815260040161053390611383565b6006546040516370a0823160e01b81523060048201526000916001600160a01b03169081906370a0823190602401602060405180830381865afa158015610853573d6000803e3d6000fd5b505050506040513d601f19601f8201168201806040525081019061087791906113b1565b91505090565b600061088a82600161068f565b6006546040516323b872dd60e01b8152336004820152306024820152604481018390529192506001600160a01b031690819081906323b872dd906064016020604051808303816000875af11580156108e6573d6000803e3d6000fd5b505050506040513d601f19601f8201168201806040525081019061090a9190611366565b6109265760405162461bcd60e51b815260040161053390611383565b6109303385610de7565b336000908152600860205260408120805486929061094f9084906112cd565b92505081905550836007600082825461096891906112cd565b909155505050505050565b6000610980826000610cb2565b336000908152600860205260409020549091508211156109da5760405162461bcd60e51b8152602060048201526015602482015274496e73756666696369656e742042616c616e63657360581b6044820152606401610533565b6109e43383610f07565b3360009081526008602052604081208054849290610a039084906112e0565b925050819055508160076000828254610a1c91906112e0565b9091555050604051339082156108fc029083906000818181858888f193505050501580156105ba573d6000803e3d6000fd5b600080721382149eba3441043c1c66972b4772963f5d4390506000806000806000856001600160a01b031663feaf968c6040518163ffffffff1660e01b815260040160a060405180830381865afa158015610aad573d6000803e3d6000fd5b505050506040513d601f19601f82011682018060405250810190610ad191906113e4565b50919a9950505050505050505050565b6060600480546105ce906112f3565b6000610afd82600061068f565b60065460405163095ea7b360e01b8152306004820152602481018390529192506001600160a01b0316908190819063095ea7b3906044016020604051808303816000875af1158015610b53573d6000803e3d6000fd5b505050506040513d601f19601f82011682018060405250810190610b779190611366565b506040516323b872dd60e01b8152306004820152336024820152604481018490526001600160a01b038216906323b872dd906064016020604051808303816000875af1158015610bcb573d6000803e3d6000fd5b505050506040513d601f19601f82011682018060405250810190610bef9190611366565b610c0b5760405162461bcd60e51b815260040161053390611383565b33600090815260086020526040902054841115610c625760405162461bcd60e51b8152602060048201526015602482015274496e73756666696369656e742042616c616e63657360581b6044820152606401610533565b610c6c3385610f07565b3360009081526008602052604081208054869290610c8b9084906112e0565b92505081905550836007600082825461096891906112e0565b60003361065f818585610ea8565b600080808315610ce157610cc7600754610d18565b9150610cda856007546104c991906112cd565b9050610d02565b610cec600754610d18565b9050610cff856007546104c991906112e0565b91505b6000610d0e83836112e0565b9695505050505050565b60008060016005546064610d2c9190611344565b610d3691906112e0565b90506000600554846001610d4a91906112cd565b610d548487611518565b610d5e919061132d565b610d68919061132d565b9050610d75606482611344565b949350505050565b60008060016005546064610d919190611344565b610d9b91906112e0565b905060006005546007546001610db191906112cd565b83600754610dbf9190611518565b610dc9919061132d565b610dd3919061132d565b9050610de0606482611344565b9250505090565b6001600160a01b038216610e115760405163ec442f0560e01b815260006004820152602401610533565b61076960008383610f39565b6105ba8383836001611063565b6001600160a01b038381166000908152600160209081526040808320938616835292905220546000198114610ea25781811015610e9357604051637dc7a0d960e11b81526001600160a01b03841660048201526024810182905260448101839052606401610533565b610ea284848484036000611063565b50505050565b6001600160a01b038316610ed257604051634b637e8f60e11b815260006004820152602401610533565b6001600160a01b038216610efc5760405163ec442f0560e01b815260006004820152602401610533565b6105ba838383610f39565b6001600160a01b038216610f3157604051634b637e8f60e11b815260006004820152602401610533565b610769826000835b6001600160a01b038316610f64578060026000828254610f5991906112cd565b90915550610fd69050565b6001600160a01b03831660009081526020819052604090205481811015610fb75760405163391434e360e21b81526001600160a01b03851660048201526024810182905260448101839052606401610533565b6001600160a01b03841660009081526020819052604090209082900390555b6001600160a01b038216610ff257600280548290039055611011565b6001600160a01b03821660009081526020819052604090208054820190555b816001600160a01b0316836001600160a01b03167fddf252ad1be2c89b69c2b068fc378daa952ba7f163c4a11628f55a4df523b3ef8360405161105691815260200190565b60405180910390a3505050565b6001600160a01b03841661108d5760405163e602df0560e01b815260006004820152602401610533565b6001600160a01b0383166110b757604051634a1406b160e11b815260006004820152602401610533565b6001600160a01b0380851660009081526001602090815260408083209387168352929052208290558015610ea257826001600160a01b0316846001600160a01b03167f8c5be1e5ebec7d5bd14f71427d1e84f3dd0314c0f7b2291e5b200ac8c7c3b9258460405161112a91815260200190565b60405180910390a350505050565b60006020828403121561114a57600080fd5b5035919050565b600060208083528351808285015260005b8181101561117e57858101830151858201604001528201611162565b506000604082860101526040601f19601f8301168501019250505092915050565b80356001600160a01b03811681146111b657600080fd5b919050565b600080604083850312156111ce57600080fd5b6111d78361119f565b946020939093013593505050565b6000806000606084860312156111fa57600080fd5b6112038461119f565b92506112116020850161119f565b9150604084013590509250925092565b60006020828403121561123357600080fd5b61123c8261119f565b9392505050565b801515811461125157600080fd5b50565b6000806040838503121561126757600080fd5b82359150602083013561127981611243565b809150509250929050565b6000806040838503121561129757600080fd5b6112a08361119f565b91506112ae6020840161119f565b90509250929050565b634e487b7160e01b600052601160045260246000fd5b80820180821115610665576106656112b7565b81810381811115610665576106656112b7565b600181811c9082168061130757607f821691505b60208210810361132757634e487b7160e01b600052602260045260246000fd5b50919050565b8082028115828204841417610665576106656112b7565b60008261136157634e487b7160e01b600052601260045260246000fd5b500490565b60006020828403121561137857600080fd5b815161123c81611243565b6020808252601490820152731554d110c81d1c985b9cd9995c8819985a5b195960621b604082015260600190565b6000602082840312156113c357600080fd5b5051919050565b805169ffffffffffffffffffff811681146111b657600080fd5b600080600080600060a086880312156113fc57600080fd5b611405866113ca565b9450602086015193506040860151925060608601519150611428608087016113ca565b90509295509295909350565b600181815b8085111561146f578160001904821115611455576114556112b7565b8085161561146257918102915b93841c9390800290611439565b509250929050565b60008261148657506001610665565b8161149357506000610665565b81600181146114a957600281146114b3576114cf565b6001915050610665565b60ff8411156114c4576114c46112b7565b50506001821b610665565b5060208310610133831016604e8410600b84101617156114f2575081810a610665565b6114fc8383611434565b8060001904821115611510576115106112b7565b029392505050565b600061123c838361147756fea2646970667358221220c979d9abbca21075f7a84d62258a613ac40336c7f20e5aaa9a93283a314a6a7164736f6c63430008140033",
          "opcodes": "PUSH1 0x80 PUSH1 0x40 MSTORE PUSH1 0x6 DUP1 SLOAD PUSH1 0x1 PUSH1 0x1 PUSH1 0xA0 SHL SUB NOT AND PUSH20 0x5C904BF78CAF64F8173112110D179FA0BBA42D33 OR SWAP1 SSTORE CALLVALUE DUP1 ISZERO PUSH3 0x37 JUMPI PUSH1 0x0 DUP1 REVERT JUMPDEST POP PUSH1 0x40 MLOAD PUSH3 0x18DD CODESIZE SUB DUP1 PUSH3 0x18DD DUP4 CODECOPY DUP2 ADD PUSH1 0x40 DUP2 SWAP1 MSTORE PUSH3 0x5A SWAP2 PUSH3 0x1A5 JUMP JUMPDEST DUP3 DUP3 PUSH1 0x3 PUSH3 0x6A DUP4 DUP3 PUSH3 0x2A7 JUMP JUMPDEST POP PUSH1 0x4 PUSH3 0x79 DUP3 DUP3 PUSH3 0x2A7 JUMP JUMPDEST POP POP POP PUSH3 0xF4240 DUP2 GT ISZERO PUSH3 0xD4 JUMPI PUSH1 0x40 MLOAD PUSH3 0x461BCD PUSH1 0xE5 SHL DUP2 MSTORE PUSH1 0x20 PUSH1 0x4 DUP3 ADD MSTORE PUSH1 0x15 PUSH1 0x24 DUP3 ADD MSTORE PUSH32 0x496E76616C6964207265736572766520726174696F0000000000000000000000 PUSH1 0x44 DUP3 ADD MSTORE PUSH1 0x64 ADD PUSH1 0x40 MLOAD DUP1 SWAP2 SUB SWAP1 REVERT JUMPDEST PUSH1 0x5 SSTORE POP PUSH3 0x373 SWAP1 POP JUMP JUMPDEST PUSH4 0x4E487B71 PUSH1 0xE0 SHL PUSH1 0x0 MSTORE PUSH1 0x41 PUSH1 0x4 MSTORE PUSH1 0x24 PUSH1 0x0 REVERT JUMPDEST PUSH1 0x0 DUP3 PUSH1 0x1F DUP4 ADD SLT PUSH3 0x108 JUMPI PUSH1 0x0 DUP1 REVERT JUMPDEST DUP2 MLOAD PUSH1 0x1 PUSH1 0x1 PUSH1 0x40 SHL SUB DUP1 DUP3 GT ISZERO PUSH3 0x125 JUMPI PUSH3 0x125 PUSH3 0xE0 JUMP JUMPDEST PUSH1 0x40 MLOAD PUSH1 0x1F DUP4 ADD PUSH1 0x1F NOT SWAP1 DUP2 AND PUSH1 0x3F ADD AND DUP2 ADD SWAP1 DUP3 DUP3 GT DUP2 DUP4 LT OR ISZERO PUSH3 0x150 JUMPI PUSH3 0x150 PUSH3 0xE0 JUMP JUMPDEST DUP2 PUSH1 0x40 MSTORE DUP4 DUP2 MSTORE PUSH1 0x20 SWAP3 POP DUP7 DUP4 DUP6 DUP9 ADD ADD GT ISZERO PUSH3 0x16D JUMPI PUSH1 0x0 DUP1 REVERT JUMPDEST PUSH1 0x0 SWAP2 POP JUMPDEST DUP4 DUP3 LT ISZERO PUSH3 0x191 JUMPI DUP6 DUP3 ADD DUP4 ADD MLOAD DUP2 DUP4 ADD DUP5 ADD MSTORE SWAP1 DUP3 ADD SWAP1 PUSH3 0x172 JUMP JUMPDEST PUSH1 0x0 SWAP4 DUP2 ADD SWAP1 SWAP3 ADD SWAP3 SWAP1 SWAP3 MSTORE SWAP5 SWAP4 POP POP POP POP JUMP JUMPDEST PUSH1 0x0 DUP1 PUSH1 0x0 PUSH1 0x60 DUP5 DUP7 SUB SLT ISZERO PUSH3 0x1BB JUMPI PUSH1 0x0 DUP1 REVERT JUMPDEST DUP4 MLOAD PUSH1 0x1 PUSH1 0x1 PUSH1 0x40 SHL SUB DUP1 DUP3 GT ISZERO PUSH3 0x1D3 JUMPI PUSH1 0x0 DUP1 REVERT JUMPDEST PUSH3 0x1E1 DUP8 DUP4 DUP9 ADD PUSH3 0xF6 JUMP JUMPDEST SWAP5 POP PUSH1 0x20 DUP7 ADD MLOAD SWAP2 POP DUP1 DUP3 GT ISZERO PUSH3 0x1F8 JUMPI PUSH1 0x0 DUP1 REVERT JUMPDEST POP PUSH3 0x207 DUP7 DUP3 DUP8 ADD PUSH3 0xF6 JUMP JUMPDEST SWAP3 POP POP PUSH1 0x40 DUP5 ADD MLOAD SWAP1 POP SWAP3 POP SWAP3 POP SWAP3 JUMP JUMPDEST PUSH1 0x1 DUP2 DUP2 SHR SWAP1 DUP3 AND DUP1 PUSH3 0x22D JUMPI PUSH1 0x7F DUP3 AND SWAP2 POP JUMPDEST PUSH1 0x20 DUP3 LT DUP2 SUB PUSH3 0x24E JUMPI PUSH4 0x4E487B71 PUSH1 0xE0 SHL PUSH1 0x0 MSTORE PUSH1 0x22 PUSH1 0x4 MSTORE PUSH1 0x24 PUSH1 0x0 REVERT JUMPDEST POP SWAP2 SWAP1 POP JUMP JUMPDEST PUSH1 0x1F DUP3 GT ISZERO PUSH3 0x2A2 JUMPI PUSH1 0x0 DUP2 DUP2 MSTORE PUSH1 0x20 DUP2 KECCAK256 PUSH1 0x1F DUP6 ADD PUSH1 0x5 SHR DUP2 ADD PUSH1 0x20 DUP7 LT ISZERO PUSH3 0x27D JUMPI POP DUP1 JUMPDEST PUSH1 0x1F DUP6 ADD PUSH1 0x5 SHR DUP3 ADD SWAP2 POP JUMPDEST DUP2 DUP2 LT ISZERO PUSH3 0x29E JUMPI DUP3 DUP2 SSTORE PUSH1 0x1 ADD PUSH3 0x289 JUMP JUMPDEST POP POP POP JUMPDEST POP POP POP JUMP JUMPDEST DUP2 MLOAD PUSH1 0x1 PUSH1 0x1 PUSH1 0x40 SHL SUB DUP2 GT ISZERO PUSH3 0x2C3 JUMPI PUSH3 0x2C3 PUSH3 0xE0 JUMP JUMPDEST PUSH3 0x2DB DUP2 PUSH3 0x2D4 DUP5 SLOAD PUSH3 0x218 JUMP JUMPDEST DUP5 PUSH3 0x254 JUMP JUMPDEST PUSH1 0x20 DUP1 PUSH1 0x1F DUP4 GT PUSH1 0x1 DUP2 EQ PUSH3 0x313 JUMPI PUSH1 0x0 DUP5 ISZERO PUSH3 0x2FA JUMPI POP DUP6 DUP4 ADD MLOAD JUMPDEST PUSH1 0x0 NOT PUSH1 0x3 DUP7 SWAP1 SHL SHR NOT AND PUSH1 0x1 DUP6 SWAP1 SHL OR DUP6 SSTORE PUSH3 0x29E JUMP JUMPDEST PUSH1 0x0 DUP6 DUP2 MSTORE PUSH1 0x20 DUP2 KECCAK256 PUSH1 0x1F NOT DUP7 AND SWAP2 JUMPDEST DUP3 DUP2 LT ISZERO PUSH3 0x344 JUMPI DUP9 DUP7 ADD MLOAD DUP3 SSTORE SWAP5 DUP5 ADD SWAP5 PUSH1 0x1 SWAP1 SWAP2 ADD SWAP1 DUP5 ADD PUSH3 0x323 JUMP JUMPDEST POP DUP6 DUP3 LT ISZERO PUSH3 0x363 JUMPI DUP8 DUP6 ADD MLOAD PUSH1 0x0 NOT PUSH1 0x3 DUP9 SWAP1 SHL PUSH1 0xF8 AND SHR NOT AND DUP2 SSTORE JUMPDEST POP POP POP POP POP PUSH1 0x1 SWAP1 DUP2 SHL ADD SWAP1 SSTORE POP JUMP JUMPDEST PUSH2 0x155A DUP1 PUSH3 0x383 PUSH1 0x0 CODECOPY PUSH1 0x0 RETURN INVALID PUSH1 0x80 PUSH1 0x40 MSTORE PUSH1 0x4 CALLDATASIZE LT PUSH2 0x18B JUMPI PUSH1 0x0 CALLDATALOAD PUSH1 0xE0 SHR DUP1 PUSH4 0x39F6A925 GT PUSH2 0xE0 JUMPI DUP1 PUSH4 0x95D89B41 GT PUSH2 0x84 JUMPI DUP1 PUSH4 0xA9536BCB GT PUSH2 0x61 JUMPI DUP1 PUSH4 0xA9536BCB EQ PUSH2 0x448 JUMPI DUP1 PUSH4 0xDD62ED3E EQ PUSH2 0x468 JUMPI DUP1 PUSH4 0xE7962A80 EQ PUSH2 0x4AE JUMPI DUP1 PUSH4 0xEB91D37E EQ PUSH2 0x4CE JUMPI STOP JUMPDEST DUP1 PUSH4 0x95D89B41 EQ PUSH2 0x3F3 JUMPI DUP1 PUSH4 0xA31F714F EQ PUSH2 0x408 JUMPI DUP1 PUSH4 0xA9059CBB EQ PUSH2 0x428 JUMPI STOP JUMPDEST DUP1 PUSH4 0x6B2AEA05 GT PUSH2 0xBD JUMPI DUP1 PUSH4 0x6B2AEA05 EQ PUSH2 0x375 JUMPI DUP1 PUSH4 0x70A08231 EQ PUSH2 0x395 JUMPI DUP1 PUSH4 0x7A721C3C EQ PUSH2 0x3CB JUMPI DUP1 PUSH4 0x8E15F473 EQ PUSH2 0x3DE JUMPI STOP JUMPDEST DUP1 PUSH4 0x39F6A925 EQ PUSH2 0x308 JUMPI DUP1 PUSH4 0x3CFD1CCC EQ PUSH2 0x328 JUMPI DUP1 PUSH4 0x3E1430AF EQ PUSH2 0x33D JUMPI STOP JUMPDEST DUP1 PUSH4 0x1190016C GT PUSH2 0x147 JUMPI DUP1 PUSH4 0x27E235E3 GT PUSH2 0x124 JUMPI DUP1 PUSH4 0x27E235E3 EQ PUSH2 0x297 JUMPI DUP1 PUSH4 0x2A8038B2 EQ PUSH2 0x2C4 JUMPI DUP1 PUSH4 0x313CE567 EQ PUSH2 0x2E4 JUMPI DUP1 PUSH4 0x35C618C3 EQ PUSH2 0x300 JUMPI STOP JUMPDEST DUP1 PUSH4 0x1190016C EQ PUSH2 0x24B JUMPI DUP1 PUSH4 0x18160DDD EQ PUSH2 0x262 JUMPI DUP1 PUSH4 0x23B872DD EQ PUSH2 0x277 JUMPI STOP JUMPDEST DUP1 PUSH4 0x41E79B1 EQ PUSH2 0x194 JUMPI DUP1 PUSH4 0x47FC9AA EQ PUSH2 0x1A7 JUMPI DUP1 PUSH4 0x6FDDE03 EQ PUSH2 0x1D0 JUMPI DUP1 PUSH4 0x95EA7B3 EQ PUSH2 0x1F2 JUMPI DUP1 PUSH4 0xC7D5CD8 EQ PUSH2 0x222 JUMPI DUP1 PUSH4 0x10DED165 EQ PUSH2 0x238 JUMPI STOP JUMPDEST CALLDATASIZE PUSH2 0x192 JUMPI STOP JUMPDEST STOP JUMPDEST PUSH2 0x192 PUSH2 0x1A2 CALLDATASIZE PUSH1 0x4 PUSH2 0x1138 JUMP JUMPDEST PUSH2 0x4E3 JUMP JUMPDEST CALLVALUE DUP1 ISZERO PUSH2 0x1B3 JUMPI PUSH1 0x0 DUP1 REVERT JUMPDEST POP PUSH2 0x1BD PUSH1 0x7 SLOAD DUP2 JUMP JUMPDEST PUSH1 0x40 MLOAD SWAP1 DUP2 MSTORE PUSH1 0x20 ADD JUMPDEST PUSH1 0x40 MLOAD DUP1 SWAP2 SUB SWAP1 RETURN JUMPDEST CALLVALUE DUP1 ISZERO PUSH2 0x1DC JUMPI PUSH1 0x0 DUP1 REVERT JUMPDEST POP PUSH2 0x1E5 PUSH2 0x5BF JUMP JUMPDEST PUSH1 0x40 MLOAD PUSH2 0x1C7 SWAP2 SWAP1 PUSH2 0x1151 JUMP JUMPDEST CALLVALUE DUP1 ISZERO PUSH2 0x1FE JUMPI PUSH1 0x0 DUP1 REVERT JUMPDEST POP PUSH2 0x212 PUSH2 0x20D CALLDATASIZE PUSH1 0x4 PUSH2 0x11BB JUMP JUMPDEST PUSH2 0x651 JUMP JUMPDEST PUSH1 0x40 MLOAD SWAP1 ISZERO ISZERO DUP2 MSTORE PUSH1 0x20 ADD PUSH2 0x1C7 JUMP JUMPDEST CALLVALUE DUP1 ISZERO PUSH2 0x22E JUMPI PUSH1 0x0 DUP1 REVERT JUMPDEST POP PUSH2 0x1BD PUSH1 0x5 SLOAD DUP2 JUMP JUMPDEST CALLVALUE DUP1 ISZERO PUSH2 0x244 JUMPI PUSH1 0x0 DUP1 REVERT JUMPDEST POP SELFBALANCE PUSH2 0x1BD JUMP JUMPDEST CALLVALUE DUP1 ISZERO PUSH2 0x257 JUMPI PUSH1 0x0 DUP1 REVERT JUMPDEST POP PUSH2 0x1BD PUSH3 0xF4240 DUP2 JUMP JUMPDEST CALLVALUE DUP1 ISZERO PUSH2 0x26E JUMPI PUSH1 0x0 DUP1 REVERT JUMPDEST POP PUSH1 0x2 SLOAD PUSH2 0x1BD JUMP JUMPDEST CALLVALUE DUP1 ISZERO PUSH2 0x283 JUMPI PUSH1 0x0 DUP1 REVERT JUMPDEST POP PUSH2 0x212 PUSH2 0x292 CALLDATASIZE PUSH1 0x4 PUSH2 0x11E5 JUMP JUMPDEST PUSH2 0x66B JUMP JUMPDEST CALLVALUE DUP1 ISZERO PUSH2 0x2A3 JUMPI PUSH1 0x0 DUP1 REVERT JUMPDEST POP PUSH2 0x1BD PUSH2 0x2B2 CALLDATASIZE PUSH1 0x4 PUSH2 0x1221 JUMP JUMPDEST PUSH1 0x8 PUSH1 0x20 MSTORE PUSH1 0x0 SWAP1 DUP2 MSTORE PUSH1 0x40 SWAP1 KECCAK256 SLOAD DUP2 JUMP JUMPDEST CALLVALUE DUP1 ISZERO PUSH2 0x2D0 JUMPI PUSH1 0x0 DUP1 REVERT JUMPDEST POP PUSH2 0x1BD PUSH2 0x2DF CALLDATASIZE PUSH1 0x4 PUSH2 0x1254 JUMP JUMPDEST PUSH2 0x68F JUMP JUMPDEST CALLVALUE DUP1 ISZERO PUSH2 0x2F0 JUMPI PUSH1 0x0 DUP1 REVERT JUMPDEST POP PUSH1 0x40 MLOAD PUSH1 0x12 DUP2 MSTORE PUSH1 0x20 ADD PUSH2 0x1C7 JUMP JUMPDEST PUSH2 0x192 PUSH2 0x6E0 JUMP JUMPDEST CALLVALUE DUP1 ISZERO PUSH2 0x314 JUMPI PUSH1 0x0 DUP1 REVERT JUMPDEST POP PUSH2 0x192 PUSH2 0x323 CALLDATASIZE PUSH1 0x4 PUSH2 0x1138 JUMP JUMPDEST PUSH2 0x76D JUMP JUMPDEST CALLVALUE DUP1 ISZERO PUSH2 0x334 JUMPI PUSH1 0x0 DUP1 REVERT JUMPDEST POP PUSH2 0x1BD PUSH2 0x808 JUMP JUMPDEST CALLVALUE DUP1 ISZERO PUSH2 0x349 JUMPI PUSH1 0x0 DUP1 REVERT JUMPDEST POP PUSH1 0x6 SLOAD PUSH2 0x35D SWAP1 PUSH1 0x1 PUSH1 0x1 PUSH1 0xA0 SHL SUB AND DUP2 JUMP JUMPDEST PUSH1 0x40 MLOAD PUSH1 0x1 PUSH1 0x1 PUSH1 0xA0 SHL SUB SWAP1 SWAP2 AND DUP2 MSTORE PUSH1 0x20 ADD PUSH2 0x1C7 JUMP JUMPDEST CALLVALUE DUP1 ISZERO PUSH2 0x381 JUMPI PUSH1 0x0 DUP1 REVERT JUMPDEST POP PUSH2 0x192 PUSH2 0x390 CALLDATASIZE PUSH1 0x4 PUSH2 0x1138 JUMP JUMPDEST PUSH2 0x87D JUMP JUMPDEST CALLVALUE DUP1 ISZERO PUSH2 0x3A1 JUMPI PUSH1 0x0 DUP1 REVERT JUMPDEST POP PUSH2 0x1BD PUSH2 0x3B0 CALLDATASIZE PUSH1 0x4 PUSH2 0x1221 JUMP JUMPDEST PUSH1 0x1 PUSH1 0x1 PUSH1 0xA0 SHL SUB AND PUSH1 0x0 SWAP1 DUP2 MSTORE PUSH1 0x20 DUP2 SWAP1 MSTORE PUSH1 0x40 SWAP1 KECCAK256 SLOAD SWAP1 JUMP JUMPDEST PUSH2 0x192 PUSH2 0x3D9 CALLDATASIZE PUSH1 0x4 PUSH2 0x1138 JUMP JUMPDEST PUSH2 0x973 JUMP JUMPDEST CALLVALUE DUP1 ISZERO PUSH2 0x3EA JUMPI PUSH1 0x0 DUP1 REVERT JUMPDEST POP PUSH2 0x1BD PUSH2 0xA4E JUMP JUMPDEST CALLVALUE DUP1 ISZERO PUSH2 0x3FF JUMPI PUSH1 0x0 DUP1 REVERT JUMPDEST POP PUSH2 0x1E5 PUSH2 0xAE1 JUMP JUMPDEST CALLVALUE DUP1 ISZERO PUSH2 0x414 JUMPI PUSH1 0x0 DUP1 REVERT JUMPDEST POP PUSH2 0x192 PUSH2 0x423 CALLDATASIZE PUSH1 0x4 PUSH2 0x1138 JUMP JUMPDEST PUSH2 0xAF0 JUMP JUMPDEST CALLVALUE DUP1 ISZERO PUSH2 0x434 JUMPI PUSH1 0x0 DUP1 REVERT JUMPDEST POP PUSH2 0x212 PUSH2 0x443 CALLDATASIZE PUSH1 0x4 PUSH2 0x11BB JUMP JUMPDEST PUSH2 0xCA4 JUMP JUMPDEST CALLVALUE DUP1 ISZERO PUSH2 0x454 JUMPI PUSH1 0x0 DUP1 REVERT JUMPDEST POP PUSH2 0x1BD PUSH2 0x463 CALLDATASIZE PUSH1 0x4 PUSH2 0x1254 JUMP JUMPDEST PUSH2 0xCB2 JUMP JUMPDEST CALLVALUE DUP1 ISZERO PUSH2 0x474 JUMPI PUSH1 0x0 DUP1 REVERT JUMPDEST POP PUSH2 0x1BD PUSH2 0x483 CALLDATASIZE PUSH1 0x4 PUSH2 0x1284 JUMP JUMPDEST PUSH1 0x1 PUSH1 0x1 PUSH1 0xA0 SHL SUB SWAP2 DUP3 AND PUSH1 0x0 SWAP1 DUP2 MSTORE PUSH1 0x1 PUSH1 0x20 SWAP1 DUP2 MSTORE PUSH1 0x40 DUP1 DUP4 KECCAK256 SWAP4 SWAP1 SWAP5 AND DUP3 MSTORE SWAP2 SWAP1 SWAP2 MSTORE KECCAK256 SLOAD SWAP1 JUMP JUMPDEST CALLVALUE DUP1 ISZERO PUSH2 0x4BA JUMPI PUSH1 0x0 DUP1 REVERT JUMPDEST POP PUSH2 0x1BD PUSH2 0x4C9 CALLDATASIZE PUSH1 0x4 PUSH2 0x1138 JUMP JUMPDEST PUSH2 0xD18 JUMP JUMPDEST CALLVALUE DUP1 ISZERO PUSH2 0x4DA JUMPI PUSH1 0x0 DUP1 REVERT JUMPDEST POP PUSH2 0x1BD PUSH2 0xD7D JUMP JUMPDEST PUSH1 0x0 PUSH2 0x4F0 DUP3 PUSH1 0x1 PUSH2 0xCB2 JUMP JUMPDEST SWAP1 POP DUP1 CALLVALUE LT ISZERO PUSH2 0x53C JUMPI PUSH1 0x40 MLOAD PUSH3 0x461BCD PUSH1 0xE5 SHL DUP2 MSTORE PUSH1 0x20 PUSH1 0x4 DUP3 ADD MSTORE PUSH1 0x12 PUSH1 0x24 DUP3 ADD MSTORE PUSH18 0x496E73756666696369656E742046756E6473 PUSH1 0x70 SHL PUSH1 0x44 DUP3 ADD MSTORE PUSH1 0x64 ADD JUMPDEST PUSH1 0x40 MLOAD DUP1 SWAP2 SUB SWAP1 REVERT JUMPDEST PUSH2 0x546 CALLER DUP4 PUSH2 0xDE7 JUMP JUMPDEST CALLER PUSH1 0x0 SWAP1 DUP2 MSTORE PUSH1 0x8 PUSH1 0x20 MSTORE PUSH1 0x40 DUP2 KECCAK256 DUP1 SLOAD DUP5 SWAP3 SWAP1 PUSH2 0x565 SWAP1 DUP5 SWAP1 PUSH2 0x12CD JUMP JUMPDEST SWAP3 POP POP DUP2 SWAP1 SSTORE POP DUP2 PUSH1 0x7 PUSH1 0x0 DUP3 DUP3 SLOAD PUSH2 0x57E SWAP2 SWAP1 PUSH2 0x12CD JUMP JUMPDEST SWAP1 SWAP2 SSTORE POP CALLER SWAP1 POP PUSH2 0x8FC PUSH2 0x592 DUP4 CALLVALUE PUSH2 0x12E0 JUMP JUMPDEST PUSH1 0x40 MLOAD DUP2 ISZERO SWAP1 SWAP3 MUL SWAP2 PUSH1 0x0 DUP2 DUP2 DUP2 DUP6 DUP9 DUP9 CALL SWAP4 POP POP POP POP ISZERO DUP1 ISZERO PUSH2 0x5BA JUMPI RETURNDATASIZE PUSH1 0x0 DUP1 RETURNDATACOPY RETURNDATASIZE PUSH1 0x0 REVERT JUMPDEST POP POP POP JUMP JUMPDEST PUSH1 0x60 PUSH1 0x3 DUP1 SLOAD PUSH2 0x5CE SWAP1 PUSH2 0x12F3 JUMP JUMPDEST DUP1 PUSH1 0x1F ADD PUSH1 0x20 DUP1 SWAP2 DIV MUL PUSH1 0x20 ADD PUSH1 0x40 MLOAD SWAP1 DUP2 ADD PUSH1 0x40 MSTORE DUP1 SWAP3 SWAP2 SWAP1 DUP2 DUP2 MSTORE PUSH1 0x20 ADD DUP3 DUP1 SLOAD PUSH2 0x5FA SWAP1 PUSH2 0x12F3 JUMP JUMPDEST DUP1 ISZERO PUSH2 0x647 JUMPI DUP1 PUSH1 0x1F LT PUSH2 0x61C JUMPI PUSH2 0x100 DUP1 DUP4 SLOAD DIV MUL DUP4 MSTORE SWAP2 PUSH1 0x20 ADD SWAP2 PUSH2 0x647 JUMP JUMPDEST DUP3 ADD SWAP2 SWAP1 PUSH1 0x0 MSTORE PUSH1 0x20 PUSH1 0x0 KECCAK256 SWAP1 JUMPDEST DUP2 SLOAD DUP2 MSTORE SWAP1 PUSH1 0x1 ADD SWAP1 PUSH1 0x20 ADD DUP1 DUP4 GT PUSH2 0x62A JUMPI DUP3 SWAP1 SUB PUSH1 0x1F AND DUP3 ADD SWAP2 JUMPDEST POP POP POP POP POP SWAP1 POP SWAP1 JUMP JUMPDEST PUSH1 0x0 CALLER PUSH2 0x65F DUP2 DUP6 DUP6 PUSH2 0xE1D JUMP JUMPDEST PUSH1 0x1 SWAP2 POP POP JUMPDEST SWAP3 SWAP2 POP POP JUMP JUMPDEST PUSH1 0x0 CALLER PUSH2 0x679 DUP6 DUP3 DUP6 PUSH2 0xE2A JUMP JUMPDEST PUSH2 0x684 DUP6 DUP6 DUP6 PUSH2 0xEA8 JUMP JUMPDEST POP PUSH1 0x1 SWAP5 SWAP4 POP POP POP POP JUMP JUMPDEST PUSH1 0x0 DUP1 PUSH2 0x69A PUSH2 0xA4E JUMP JUMPDEST SWAP1 POP DUP3 ISZERO PUSH2 0x6D3 JUMPI PUSH1 0x0 PUSH2 0x6AF DUP6 PUSH1 0x1 PUSH2 0xCB2 JUMP JUMPDEST SWAP1 POP PUSH4 0x5F5E100 PUSH2 0x6C0 DUP4 DUP4 PUSH2 0x132D JUMP JUMPDEST PUSH2 0x6CA SWAP2 SWAP1 PUSH2 0x1344 JUMP JUMPDEST SWAP3 POP POP POP PUSH2 0x665 JUMP JUMPDEST PUSH1 0x0 PUSH2 0x6AF DUP6 PUSH1 0x0 PUSH2 0xCB2 JUMP JUMPDEST PUSH1 0x0 CALLVALUE GT PUSH2 0x73B JUMPI PUSH1 0x40 MLOAD PUSH3 0x461BCD PUSH1 0xE5 SHL DUP2 MSTORE PUSH1 0x20 PUSH1 0x4 DUP3 ADD MSTORE PUSH1 0x22 PUSH1 0x24 DUP3 ADD MSTORE PUSH32 0x4E6F2045746865722073656E74207769746820746865207472616E7361637469 PUSH1 0x44 DUP3 ADD MSTORE PUSH2 0x37B7 PUSH1 0xF1 SHL PUSH1 0x64 DUP3 ADD MSTORE PUSH1 0x84 ADD PUSH2 0x533 JUMP JUMPDEST PUSH1 0x40 MLOAD ADDRESS SWAP1 DUP2 SWAP1 CALLVALUE DUP1 ISZERO PUSH2 0x8FC MUL SWAP2 PUSH1 0x0 DUP2 DUP2 DUP2 DUP6 DUP9 DUP9 CALL SWAP4 POP POP POP POP ISZERO DUP1 ISZERO PUSH2 0x769 JUMPI RETURNDATASIZE PUSH1 0x0 DUP1 RETURNDATACOPY RETURNDATASIZE PUSH1 0x0 REVERT JUMPDEST POP POP JUMP JUMPDEST PUSH1 0x6 SLOAD PUSH1 0x40 MLOAD PUSH4 0x23B872DD PUSH1 0xE0 SHL DUP2 MSTORE CALLER PUSH1 0x4 DUP3 ADD MSTORE ADDRESS PUSH1 0x24 DUP3 ADD MSTORE PUSH1 0x44 DUP2 ADD DUP4 SWAP1 MSTORE PUSH1 0x1 PUSH1 0x1 PUSH1 0xA0 SHL SUB SWAP1 SWAP2 AND SWAP1 DUP2 SWAP1 DUP2 SWAP1 PUSH4 0x23B872DD SWAP1 PUSH1 0x64 ADD PUSH1 0x20 PUSH1 0x40 MLOAD DUP1 DUP4 SUB DUP2 PUSH1 0x0 DUP8 GAS CALL ISZERO DUP1 ISZERO PUSH2 0x7C8 JUMPI RETURNDATASIZE PUSH1 0x0 DUP1 RETURNDATACOPY RETURNDATASIZE PUSH1 0x0 REVERT JUMPDEST POP POP POP POP PUSH1 0x40 MLOAD RETURNDATASIZE PUSH1 0x1F NOT PUSH1 0x1F DUP3 ADD AND DUP3 ADD DUP1 PUSH1 0x40 MSTORE POP DUP2 ADD SWAP1 PUSH2 0x7EC SWAP2 SWAP1 PUSH2 0x1366 JUMP JUMPDEST PUSH2 0x5BA JUMPI PUSH1 0x40 MLOAD PUSH3 0x461BCD PUSH1 0xE5 SHL DUP2 MSTORE PUSH1 0x4 ADD PUSH2 0x533 SWAP1 PUSH2 0x1383 JUMP JUMPDEST PUSH1 0x6 SLOAD PUSH1 0x40 MLOAD PUSH4 0x70A08231 PUSH1 0xE0 SHL DUP2 MSTORE ADDRESS PUSH1 0x4 DUP3 ADD MSTORE PUSH1 0x0 SWAP2 PUSH1 0x1 PUSH1 0x1 PUSH1 0xA0 SHL SUB AND SWAP1 DUP2 SWAP1 PUSH4 0x70A08231 SWAP1 PUSH1 0x24 ADD PUSH1 0x20 PUSH1 0x40 MLOAD DUP1 DUP4 SUB DUP2 DUP7 GAS STATICCALL ISZERO DUP1 ISZERO PUSH2 0x853 JUMPI RETURNDATASIZE PUSH1 0x0 DUP1 RETURNDATACOPY RETURNDATASIZE PUSH1 0x0 REVERT JUMPDEST POP POP POP POP PUSH1 0x40 MLOAD RETURNDATASIZE PUSH1 0x1F NOT PUSH1 0x1F DUP3 ADD AND DUP3 ADD DUP1 PUSH1 0x40 MSTORE POP DUP2 ADD SWAP1 PUSH2 0x877 SWAP2 SWAP1 PUSH2 0x13B1 JUMP JUMPDEST SWAP2 POP POP SWAP1 JUMP JUMPDEST PUSH1 0x0 PUSH2 0x88A DUP3 PUSH1 0x1 PUSH2 0x68F JUMP JUMPDEST PUSH1 0x6 SLOAD PUSH1 0x40 MLOAD PUSH4 0x23B872DD PUSH1 0xE0 SHL DUP2 MSTORE CALLER PUSH1 0x4 DUP3 ADD MSTORE ADDRESS PUSH1 0x24 DUP3 ADD MSTORE PUSH1 0x44 DUP2 ADD DUP4 SWAP1 MSTORE SWAP2 SWAP3 POP PUSH1 0x1 PUSH1 0x1 PUSH1 0xA0 SHL SUB AND SWAP1 DUP2 SWAP1 DUP2 SWAP1 PUSH4 0x23B872DD SWAP1 PUSH1 0x64 ADD PUSH1 0x20 PUSH1 0x40 MLOAD DUP1 DUP4 SUB DUP2 PUSH1 0x0 DUP8 GAS CALL ISZERO DUP1 ISZERO PUSH2 0x8E6 JUMPI RETURNDATASIZE PUSH1 0x0 DUP1 RETURNDATACOPY RETURNDATASIZE PUSH1 0x0 REVERT JUMPDEST POP POP POP POP PUSH1 0x40 MLOAD RETURNDATASIZE PUSH1 0x1F NOT PUSH1 0x1F DUP3 ADD AND DUP3 ADD DUP1 PUSH1 0x40 MSTORE POP DUP2 ADD SWAP1 PUSH2 0x90A SWAP2 SWAP1 PUSH2 0x1366 JUMP JUMPDEST PUSH2 0x926 JUMPI PUSH1 0x40 MLOAD PUSH3 0x461BCD PUSH1 0xE5 SHL DUP2 MSTORE PUSH1 0x4 ADD PUSH2 0x533 SWAP1 PUSH2 0x1383 JUMP JUMPDEST PUSH2 0x930 CALLER DUP6 PUSH2 0xDE7 JUMP JUMPDEST CALLER PUSH1 0x0 SWAP1 DUP2 MSTORE PUSH1 0x8 PUSH1 0x20 MSTORE PUSH1 0x40 DUP2 KECCAK256 DUP1 SLOAD DUP7 SWAP3 SWAP1 PUSH2 0x94F SWAP1 DUP5 SWAP1 PUSH2 0x12CD JUMP JUMPDEST SWAP3 POP POP DUP2 SWAP1 SSTORE POP DUP4 PUSH1 0x7 PUSH1 0x0 DUP3 DUP3 SLOAD PUSH2 0x968 SWAP2 SWAP1 PUSH2 0x12CD JUMP JUMPDEST SWAP1 SWAP2 SSTORE POP POP POP POP POP POP JUMP JUMPDEST PUSH1 0x0 PUSH2 0x980 DUP3 PUSH1 0x0 PUSH2 0xCB2 JUMP JUMPDEST CALLER PUSH1 0x0 SWAP1 DUP2 MSTORE PUSH1 0x8 PUSH1 0x20 MSTORE PUSH1 0x40 SWAP1 KECCAK256 SLOAD SWAP1 SWAP2 POP DUP3 GT ISZERO PUSH2 0x9DA JUMPI PUSH1 0x40 MLOAD PUSH3 0x461BCD PUSH1 0xE5 SHL DUP2 MSTORE PUSH1 0x20 PUSH1 0x4 DUP3 ADD MSTORE PUSH1 0x15 PUSH1 0x24 DUP3 ADD MSTORE PUSH21 0x496E73756666696369656E742042616C616E636573 PUSH1 0x58 SHL PUSH1 0x44 DUP3 ADD MSTORE PUSH1 0x64 ADD PUSH2 0x533 JUMP JUMPDEST PUSH2 0x9E4 CALLER DUP4 PUSH2 0xF07 JUMP JUMPDEST CALLER PUSH1 0x0 SWAP1 DUP2 MSTORE PUSH1 0x8 PUSH1 0x20 MSTORE PUSH1 0x40 DUP2 KECCAK256 DUP1 SLOAD DUP5 SWAP3 SWAP1 PUSH2 0xA03 SWAP1 DUP5 SWAP1 PUSH2 0x12E0 JUMP JUMPDEST SWAP3 POP POP DUP2 SWAP1 SSTORE POP DUP2 PUSH1 0x7 PUSH1 0x0 DUP3 DUP3 SLOAD PUSH2 0xA1C SWAP2 SWAP1 PUSH2 0x12E0 JUMP JUMPDEST SWAP1 SWAP2 SSTORE POP POP PUSH1 0x40 MLOAD CALLER SWAP1 DUP3 ISZERO PUSH2 0x8FC MUL SWAP1 DUP4 SWAP1 PUSH1 0x0 DUP2 DUP2 DUP2 DUP6 DUP9 DUP9 CALL SWAP4 POP POP POP POP ISZERO DUP1 ISZERO PUSH2 0x5BA JUMPI RETURNDATASIZE PUSH1 0x0 DUP1 RETURNDATACOPY RETURNDATASIZE PUSH1 0x0 REVERT JUMPDEST PUSH1 0x0 DUP1 PUSH19 0x1382149EBA3441043C1C66972B4772963F5D43 SWAP1 POP PUSH1 0x0 DUP1 PUSH1 0x0 DUP1 PUSH1 0x0 DUP6 PUSH1 0x1 PUSH1 0x1 PUSH1 0xA0 SHL SUB AND PUSH4 0xFEAF968C PUSH1 0x40 MLOAD DUP2 PUSH4 0xFFFFFFFF AND PUSH1 0xE0 SHL DUP2 MSTORE PUSH1 0x4 ADD PUSH1 0xA0 PUSH1 0x40 MLOAD DUP1 DUP4 SUB DUP2 DUP7 GAS STATICCALL ISZERO DUP1 ISZERO PUSH2 0xAAD JUMPI RETURNDATASIZE PUSH1 0x0 DUP1 RETURNDATACOPY RETURNDATASIZE PUSH1 0x0 REVERT JUMPDEST POP POP POP POP PUSH1 0x40 MLOAD RETURNDATASIZE PUSH1 0x1F NOT PUSH1 0x1F DUP3 ADD AND DUP3 ADD DUP1 PUSH1 0x40 MSTORE POP DUP2 ADD SWAP1 PUSH2 0xAD1 SWAP2 SWAP1 PUSH2 0x13E4 JUMP JUMPDEST POP SWAP2 SWAP11 SWAP10 POP POP POP POP POP POP POP POP POP POP JUMP JUMPDEST PUSH1 0x60 PUSH1 0x4 DUP1 SLOAD PUSH2 0x5CE SWAP1 PUSH2 0x12F3 JUMP JUMPDEST PUSH1 0x0 PUSH2 0xAFD DUP3 PUSH1 0x0 PUSH2 0x68F JUMP JUMPDEST PUSH1 0x6 SLOAD PUSH1 0x40 MLOAD PUSH4 0x95EA7B3 PUSH1 0xE0 SHL DUP2 MSTORE ADDRESS PUSH1 0x4 DUP3 ADD MSTORE PUSH1 0x24 DUP2 ADD DUP4 SWAP1 MSTORE SWAP2 SWAP3 POP PUSH1 0x1 PUSH1 0x1 PUSH1 0xA0 SHL SUB AND SWAP1 DUP2 SWAP1 DUP2 SWAP1 PUSH4 0x95EA7B3 SWAP1 PUSH1 0x44 ADD PUSH1 0x20 PUSH1 0x40 MLOAD DUP1 DUP4 SUB DUP2 PUSH1 0x0 DUP8 GAS CALL ISZERO DUP1 ISZERO PUSH2 0xB53 JUMPI RETURNDATASIZE PUSH1 0x0 DUP1 RETURNDATACOPY RETURNDATASIZE PUSH1 0x0 REVERT JUMPDEST POP POP POP POP PUSH1 0x40 MLOAD RETURNDATASIZE PUSH1 0x1F NOT PUSH1 0x1F DUP3 ADD AND DUP3 ADD DUP1 PUSH1 0x40 MSTORE POP DUP2 ADD SWAP1 PUSH2 0xB77 SWAP2 SWAP1 PUSH2 0x1366 JUMP JUMPDEST POP PUSH1 0x40 MLOAD PUSH4 0x23B872DD PUSH1 0xE0 SHL DUP2 MSTORE ADDRESS PUSH1 0x4 DUP3 ADD MSTORE CALLER PUSH1 0x24 DUP3 ADD MSTORE PUSH1 0x44 DUP2 ADD DUP5 SWAP1 MSTORE PUSH1 0x1 PUSH1 0x1 PUSH1 0xA0 SHL SUB DUP3 AND SWAP1 PUSH4 0x23B872DD SWAP1 PUSH1 0x64 ADD PUSH1 0x20 PUSH1 0x40 MLOAD DUP1 DUP4 SUB DUP2 PUSH1 0x0 DUP8 GAS CALL ISZERO DUP1 ISZERO PUSH2 0xBCB JUMPI RETURNDATASIZE PUSH1 0x0 DUP1 RETURNDATACOPY RETURNDATASIZE PUSH1 0x0 REVERT JUMPDEST POP POP POP POP PUSH1 0x40 MLOAD RETURNDATASIZE PUSH1 0x1F NOT PUSH1 0x1F DUP3 ADD AND DUP3 ADD DUP1 PUSH1 0x40 MSTORE POP DUP2 ADD SWAP1 PUSH2 0xBEF SWAP2 SWAP1 PUSH2 0x1366 JUMP JUMPDEST PUSH2 0xC0B JUMPI PUSH1 0x40 MLOAD PUSH3 0x461BCD PUSH1 0xE5 SHL DUP2 MSTORE PUSH1 0x4 ADD PUSH2 0x533 SWAP1 PUSH2 0x1383 JUMP JUMPDEST CALLER PUSH1 0x0 SWAP1 DUP2 MSTORE PUSH1 0x8 PUSH1 0x20 MSTORE PUSH1 0x40 SWAP1 KECCAK256 SLOAD DUP5 GT ISZERO PUSH2 0xC62 JUMPI PUSH1 0x40 MLOAD PUSH3 0x461BCD PUSH1 0xE5 SHL DUP2 MSTORE PUSH1 0x20 PUSH1 0x4 DUP3 ADD MSTORE PUSH1 0x15 PUSH1 0x24 DUP3 ADD MSTORE PUSH21 0x496E73756666696369656E742042616C616E636573 PUSH1 0x58 SHL PUSH1 0x44 DUP3 ADD MSTORE PUSH1 0x64 ADD PUSH2 0x533 JUMP JUMPDEST PUSH2 0xC6C CALLER DUP6 PUSH2 0xF07 JUMP JUMPDEST CALLER PUSH1 0x0 SWAP1 DUP2 MSTORE PUSH1 0x8 PUSH1 0x20 MSTORE PUSH1 0x40 DUP2 KECCAK256 DUP1 SLOAD DUP7 SWAP3 SWAP1 PUSH2 0xC8B SWAP1 DUP5 SWAP1 PUSH2 0x12E0 JUMP JUMPDEST SWAP3 POP POP DUP2 SWAP1 SSTORE POP DUP4 PUSH1 0x7 PUSH1 0x0 DUP3 DUP3 SLOAD PUSH2 0x968 SWAP2 SWAP1 PUSH2 0x12E0 JUMP JUMPDEST PUSH1 0x0 CALLER PUSH2 0x65F DUP2 DUP6 DUP6 PUSH2 0xEA8 JUMP JUMPDEST PUSH1 0x0 DUP1 DUP1 DUP4 ISZERO PUSH2 0xCE1 JUMPI PUSH2 0xCC7 PUSH1 0x7 SLOAD PUSH2 0xD18 JUMP JUMPDEST SWAP2 POP PUSH2 0xCDA DUP6 PUSH1 0x7 SLOAD PUSH2 0x4C9 SWAP2 SWAP1 PUSH2 0x12CD JUMP JUMPDEST SWAP1 POP PUSH2 0xD02 JUMP JUMPDEST PUSH2 0xCEC PUSH1 0x7 SLOAD PUSH2 0xD18 JUMP JUMPDEST SWAP1 POP PUSH2 0xCFF DUP6 PUSH1 0x7 SLOAD PUSH2 0x4C9 SWAP2 SWAP1 PUSH2 0x12E0 JUMP JUMPDEST SWAP2 POP JUMPDEST PUSH1 0x0 PUSH2 0xD0E DUP4 DUP4 PUSH2 0x12E0 JUMP JUMPDEST SWAP7 SWAP6 POP POP POP POP POP POP JUMP JUMPDEST PUSH1 0x0 DUP1 PUSH1 0x1 PUSH1 0x5 SLOAD PUSH1 0x64 PUSH2 0xD2C SWAP2 SWAP1 PUSH2 0x1344 JUMP JUMPDEST PUSH2 0xD36 SWAP2 SWAP1 PUSH2 0x12E0 JUMP JUMPDEST SWAP1 POP PUSH1 0x0 PUSH1 0x5 SLOAD DUP5 PUSH1 0x1 PUSH2 0xD4A SWAP2 SWAP1 PUSH2 0x12CD JUMP JUMPDEST PUSH2 0xD54 DUP5 DUP8 PUSH2 0x1518 JUMP JUMPDEST PUSH2 0xD5E SWAP2 SWAP1 PUSH2 0x132D JUMP JUMPDEST PUSH2 0xD68 SWAP2 SWAP1 PUSH2 0x132D JUMP JUMPDEST SWAP1 POP PUSH2 0xD75 PUSH1 0x64 DUP3 PUSH2 0x1344 JUMP JUMPDEST SWAP5 SWAP4 POP POP POP POP JUMP JUMPDEST PUSH1 0x0 DUP1 PUSH1 0x1 PUSH1 0x5 SLOAD PUSH1 0x64 PUSH2 0xD91 SWAP2 SWAP1 PUSH2 0x1344 JUMP JUMPDEST PUSH2 0xD9B SWAP2 SWAP1 PUSH2 0x12E0 JUMP JUMPDEST SWAP1 POP PUSH1 0x0 PUSH1 0x5 SLOAD PUSH1 0x7 SLOAD PUSH1 0x1 PUSH2 0xDB1 SWAP2 SWAP1 PUSH2 0x12CD JUMP JUMPDEST DUP4 PUSH1 0x7 SLOAD PUSH2 0xDBF SWAP2 SWAP1 PUSH2 0x1518 JUMP JUMPDEST PUSH2 0xDC9 SWAP2 SWAP1 PUSH2 0x132D JUMP JUMPDEST PUSH2 0xDD3 SWAP2 SWAP1 PUSH2 0x132D JUMP JUMPDEST SWAP1 POP PUSH2 0xDE0 PUSH1 0x64 DUP3 PUSH2 0x1344 JUMP JUMPDEST SWAP3 POP POP POP SWAP1 JUMP JUMPDEST PUSH1 0x1 PUSH1 0x1 PUSH1 0xA0 SHL SUB DUP3 AND PUSH2 0xE11 JUMPI PUSH1 0x40 MLOAD PUSH4 0xEC442F05 PUSH1 0xE0 SHL DUP2 MSTORE PUSH1 0x0 PUSH1 0x4 DUP3 ADD MSTORE PUSH1 0x24 ADD PUSH2 0x533 JUMP JUMPDEST PUSH2 0x769 PUSH1 0x0 DUP4 DUP4 PUSH2 0xF39 JUMP JUMPDEST PUSH2 0x5BA DUP4 DUP4 DUP4 PUSH1 0x1 PUSH2 0x1063 JUMP JUMPDEST PUSH1 0x1 PUSH1 0x1 PUSH1 0xA0 SHL SUB DUP4 DUP2 AND PUSH1 0x0 SWAP1 DUP2 MSTORE PUSH1 0x1 PUSH1 0x20 SWAP1 DUP2 MSTORE PUSH1 0x40 DUP1 DUP4 KECCAK256 SWAP4 DUP7 AND DUP4 MSTORE SWAP3 SWAP1 MSTORE KECCAK256 SLOAD PUSH1 0x0 NOT DUP2 EQ PUSH2 0xEA2 JUMPI DUP2 DUP2 LT ISZERO PUSH2 0xE93 JUMPI PUSH1 0x40 MLOAD PUSH4 0x7DC7A0D9 PUSH1 0xE1 SHL DUP2 MSTORE PUSH1 0x1 PUSH1 0x1 PUSH1 0xA0 SHL SUB DUP5 AND PUSH1 0x4 DUP3 ADD MSTORE PUSH1 0x24 DUP2 ADD DUP3 SWAP1 MSTORE PUSH1 0x44 DUP2 ADD DUP4 SWAP1 MSTORE PUSH1 0x64 ADD PUSH2 0x533 JUMP JUMPDEST PUSH2 0xEA2 DUP5 DUP5 DUP5 DUP5 SUB PUSH1 0x0 PUSH2 0x1063 JUMP JUMPDEST POP POP POP POP JUMP JUMPDEST PUSH1 0x1 PUSH1 0x1 PUSH1 0xA0 SHL SUB DUP4 AND PUSH2 0xED2 JUMPI PUSH1 0x40 MLOAD PUSH4 0x4B637E8F PUSH1 0xE1 SHL DUP2 MSTORE PUSH1 0x0 PUSH1 0x4 DUP3 ADD MSTORE PUSH1 0x24 ADD PUSH2 0x533 JUMP JUMPDEST PUSH1 0x1 PUSH1 0x1 PUSH1 0xA0 SHL SUB DUP3 AND PUSH2 0xEFC JUMPI PUSH1 0x40 MLOAD PUSH4 0xEC442F05 PUSH1 0xE0 SHL DUP2 MSTORE PUSH1 0x0 PUSH1 0x4 DUP3 ADD MSTORE PUSH1 0x24 ADD PUSH2 0x533 JUMP JUMPDEST PUSH2 0x5BA DUP4 DUP4 DUP4 PUSH2 0xF39 JUMP JUMPDEST PUSH1 0x1 PUSH1 0x1 PUSH1 0xA0 SHL SUB DUP3 AND PUSH2 0xF31 JUMPI PUSH1 0x40 MLOAD PUSH4 0x4B637E8F PUSH1 0xE1 SHL DUP2 MSTORE PUSH1 0x0 PUSH1 0x4 DUP3 ADD MSTORE PUSH1 0x24 ADD PUSH2 0x533 JUMP JUMPDEST PUSH2 0x769 DUP3 PUSH1 0x0 DUP4 JUMPDEST PUSH1 0x1 PUSH1 0x1 PUSH1 0xA0 SHL SUB DUP4 AND PUSH2 0xF64 JUMPI DUP1 PUSH1 0x2 PUSH1 0x0 DUP3 DUP3 SLOAD PUSH2 0xF59 SWAP2 SWAP1 PUSH2 0x12CD JUMP JUMPDEST SWAP1 SWAP2 SSTORE POP PUSH2 0xFD6 SWAP1 POP JUMP JUMPDEST PUSH1 0x1 PUSH1 0x1 PUSH1 0xA0 SHL SUB DUP4 AND PUSH1 0x0 SWAP1 DUP2 MSTORE PUSH1 0x20 DUP2 SWAP1 MSTORE PUSH1 0x40 SWAP1 KECCAK256 SLOAD DUP2 DUP2 LT ISZERO PUSH2 0xFB7 JUMPI PUSH1 0x40 MLOAD PUSH4 0x391434E3 PUSH1 0xE2 SHL DUP2 MSTORE PUSH1 0x1 PUSH1 0x1 PUSH1 0xA0 SHL SUB DUP6 AND PUSH1 0x4 DUP3 ADD MSTORE PUSH1 0x24 DUP2 ADD DUP3 SWAP1 MSTORE PUSH1 0x44 DUP2 ADD DUP4 SWAP1 MSTORE PUSH1 0x64 ADD PUSH2 0x533 JUMP JUMPDEST PUSH1 0x1 PUSH1 0x1 PUSH1 0xA0 SHL SUB DUP5 AND PUSH1 0x0 SWAP1 DUP2 MSTORE PUSH1 0x20 DUP2 SWAP1 MSTORE PUSH1 0x40 SWAP1 KECCAK256 SWAP1 DUP3 SWAP1 SUB SWAP1 SSTORE JUMPDEST PUSH1 0x1 PUSH1 0x1 PUSH1 0xA0 SHL SUB DUP3 AND PUSH2 0xFF2 JUMPI PUSH1 0x2 DUP1 SLOAD DUP3 SWAP1 SUB SWAP1 SSTORE PUSH2 0x1011 JUMP JUMPDEST PUSH1 0x1 PUSH1 0x1 PUSH1 0xA0 SHL SUB DUP3 AND PUSH1 0x0 SWAP1 DUP2 MSTORE PUSH1 0x20 DUP2 SWAP1 MSTORE PUSH1 0x40 SWAP1 KECCAK256 DUP1 SLOAD DUP3 ADD SWAP1 SSTORE JUMPDEST DUP2 PUSH1 0x1 PUSH1 0x1 PUSH1 0xA0 SHL SUB AND DUP4 PUSH1 0x1 PUSH1 0x1 PUSH1 0xA0 SHL SUB AND PUSH32 0xDDF252AD1BE2C89B69C2B068FC378DAA952BA7F163C4A11628F55A4DF523B3EF DUP4 PUSH1 0x40 MLOAD PUSH2 0x1056 SWAP2 DUP2 MSTORE PUSH1 0x20 ADD SWAP1 JUMP JUMPDEST PUSH1 0x40 MLOAD DUP1 SWAP2 SUB SWAP1 LOG3 POP POP POP JUMP JUMPDEST PUSH1 0x1 PUSH1 0x1 PUSH1 0xA0 SHL SUB DUP5 AND PUSH2 0x108D JUMPI PUSH1 0x40 MLOAD PUSH4 0xE602DF05 PUSH1 0xE0 SHL DUP2 MSTORE PUSH1 0x0 PUSH1 0x4 DUP3 ADD MSTORE PUSH1 0x24 ADD PUSH2 0x533 JUMP JUMPDEST PUSH1 0x1 PUSH1 0x1 PUSH1 0xA0 SHL SUB DUP4 AND PUSH2 0x10B7 JUMPI PUSH1 0x40 MLOAD PUSH4 0x4A1406B1 PUSH1 0xE1 SHL DUP2 MSTORE PUSH1 0x0 PUSH1 0x4 DUP3 ADD MSTORE PUSH1 0x24 ADD PUSH2 0x533 JUMP JUMPDEST PUSH1 0x1 PUSH1 0x1 PUSH1 0xA0 SHL SUB DUP1 DUP6 AND PUSH1 0x0 SWAP1 DUP2 MSTORE PUSH1 0x1 PUSH1 0x20 SWAP1 DUP2 MSTORE PUSH1 0x40 DUP1 DUP4 KECCAK256 SWAP4 DUP8 AND DUP4 MSTORE SWAP3 SWAP1 MSTORE KECCAK256 DUP3 SWAP1 SSTORE DUP1 ISZERO PUSH2 0xEA2 JUMPI DUP3 PUSH1 0x1 PUSH1 0x1 PUSH1 0xA0 SHL SUB AND DUP5 PUSH1 0x1 PUSH1 0x1 PUSH1 0xA0 SHL SUB AND PUSH32 0x8C5BE1E5EBEC7D5BD14F71427D1E84F3DD0314C0F7B2291E5B200AC8C7C3B925 DUP5 PUSH1 0x40 MLOAD PUSH2 0x112A SWAP2 DUP2 MSTORE PUSH1 0x20 ADD SWAP1 JUMP JUMPDEST PUSH1 0x40 MLOAD DUP1 SWAP2 SUB SWAP1 LOG3 POP POP POP POP JUMP JUMPDEST PUSH1 0x0 PUSH1 0x20 DUP3 DUP5 SUB SLT ISZERO PUSH2 0x114A JUMPI PUSH1 0x0 DUP1 REVERT JUMPDEST POP CALLDATALOAD SWAP2 SWAP1 POP JUMP JUMPDEST PUSH1 0x0 PUSH1 0x20 DUP1 DUP4 MSTORE DUP4 MLOAD DUP1 DUP3 DUP6 ADD MSTORE PUSH1 0x0 JUMPDEST DUP2 DUP2 LT ISZERO PUSH2 0x117E JUMPI DUP6 DUP2 ADD DUP4 ADD MLOAD DUP6 DUP3 ADD PUSH1 0x40 ADD MSTORE DUP3 ADD PUSH2 0x1162 JUMP JUMPDEST POP PUSH1 0x0 PUSH1 0x40 DUP3 DUP7 ADD ADD MSTORE PUSH1 0x40 PUSH1 0x1F NOT PUSH1 0x1F DUP4 ADD AND DUP6 ADD ADD SWAP3 POP POP POP SWAP3 SWAP2 POP POP JUMP JUMPDEST DUP1 CALLDATALOAD PUSH1 0x1 PUSH1 0x1 PUSH1 0xA0 SHL SUB DUP2 AND DUP2 EQ PUSH2 0x11B6 JUMPI PUSH1 0x0 DUP1 REVERT JUMPDEST SWAP2 SWAP1 POP JUMP JUMPDEST PUSH1 0x0 DUP1 PUSH1 0x40 DUP4 DUP6 SUB SLT ISZERO PUSH2 0x11CE JUMPI PUSH1 0x0 DUP1 REVERT JUMPDEST PUSH2 0x11D7 DUP4 PUSH2 0x119F JUMP JUMPDEST SWAP5 PUSH1 0x20 SWAP4 SWAP1 SWAP4 ADD CALLDATALOAD SWAP4 POP POP POP JUMP JUMPDEST PUSH1 0x0 DUP1 PUSH1 0x0 PUSH1 0x60 DUP5 DUP7 SUB SLT ISZERO PUSH2 0x11FA JUMPI PUSH1 0x0 DUP1 REVERT JUMPDEST PUSH2 0x1203 DUP5 PUSH2 0x119F JUMP JUMPDEST SWAP3 POP PUSH2 0x1211 PUSH1 0x20 DUP6 ADD PUSH2 0x119F JUMP JUMPDEST SWAP2 POP PUSH1 0x40 DUP5 ADD CALLDATALOAD SWAP1 POP SWAP3 POP SWAP3 POP SWAP3 JUMP JUMPDEST PUSH1 0x0 PUSH1 0x20 DUP3 DUP5 SUB SLT ISZERO PUSH2 0x1233 JUMPI PUSH1 0x0 DUP1 REVERT JUMPDEST PUSH2 0x123C DUP3 PUSH2 0x119F JUMP JUMPDEST SWAP4 SWAP3 POP POP POP JUMP JUMPDEST DUP1 ISZERO ISZERO DUP2 EQ PUSH2 0x1251 JUMPI PUSH1 0x0 DUP1 REVERT JUMPDEST POP JUMP JUMPDEST PUSH1 0x0 DUP1 PUSH1 0x40 DUP4 DUP6 SUB SLT ISZERO PUSH2 0x1267 JUMPI PUSH1 0x0 DUP1 REVERT JUMPDEST DUP3 CALLDATALOAD SWAP2 POP PUSH1 0x20 DUP4 ADD CALLDATALOAD PUSH2 0x1279 DUP2 PUSH2 0x1243 JUMP JUMPDEST DUP1 SWAP2 POP POP SWAP3 POP SWAP3 SWAP1 POP JUMP JUMPDEST PUSH1 0x0 DUP1 PUSH1 0x40 DUP4 DUP6 SUB SLT ISZERO PUSH2 0x1297 JUMPI PUSH1 0x0 DUP1 REVERT JUMPDEST PUSH2 0x12A0 DUP4 PUSH2 0x119F JUMP JUMPDEST SWAP2 POP PUSH2 0x12AE PUSH1 0x20 DUP5 ADD PUSH2 0x119F JUMP JUMPDEST SWAP1 POP SWAP3 POP SWAP3 SWAP1 POP JUMP JUMPDEST PUSH4 0x4E487B71 PUSH1 0xE0 SHL PUSH1 0x0 MSTORE PUSH1 0x11 PUSH1 0x4 MSTORE PUSH1 0x24 PUSH1 0x0 REVERT JUMPDEST DUP1 DUP3 ADD DUP1 DUP3 GT ISZERO PUSH2 0x665 JUMPI PUSH2 0x665 PUSH2 0x12B7 JUMP JUMPDEST DUP2 DUP2 SUB DUP2 DUP2 GT ISZERO PUSH2 0x665 JUMPI PUSH2 0x665 PUSH2 0x12B7 JUMP JUMPDEST PUSH1 0x1 DUP2 DUP2 SHR SWAP1 DUP3 AND DUP1 PUSH2 0x1307 JUMPI PUSH1 0x7F DUP3 AND SWAP2 POP JUMPDEST PUSH1 0x20 DUP3 LT DUP2 SUB PUSH2 0x1327 JUMPI PUSH4 0x4E487B71 PUSH1 0xE0 SHL PUSH1 0x0 MSTORE PUSH1 0x22 PUSH1 0x4 MSTORE PUSH1 0x24 PUSH1 0x0 REVERT JUMPDEST POP SWAP2 SWAP1 POP JUMP JUMPDEST DUP1 DUP3 MUL DUP2 ISZERO DUP3 DUP3 DIV DUP5 EQ OR PUSH2 0x665 JUMPI PUSH2 0x665 PUSH2 0x12B7 JUMP JUMPDEST PUSH1 0x0 DUP3 PUSH2 0x1361 JUMPI PUSH4 0x4E487B71 PUSH1 0xE0 SHL PUSH1 0x0 MSTORE PUSH1 0x12 PUSH1 0x4 MSTORE PUSH1 0x24 PUSH1 0x0 REVERT JUMPDEST POP DIV SWAP1 JUMP JUMPDEST PUSH1 0x0 PUSH1 0x20 DUP3 DUP5 SUB SLT ISZERO PUSH2 0x1378 JUMPI PUSH1 0x0 DUP1 REVERT JUMPDEST DUP2 MLOAD PUSH2 0x123C DUP2 PUSH2 0x1243 JUMP JUMPDEST PUSH1 0x20 DUP1 DUP3 MSTORE PUSH1 0x14 SWAP1 DUP3 ADD MSTORE PUSH20 0x1554D110C81D1C985B9CD9995C8819985A5B1959 PUSH1 0x62 SHL PUSH1 0x40 DUP3 ADD MSTORE PUSH1 0x60 ADD SWAP1 JUMP JUMPDEST PUSH1 0x0 PUSH1 0x20 DUP3 DUP5 SUB SLT ISZERO PUSH2 0x13C3 JUMPI PUSH1 0x0 DUP1 REVERT JUMPDEST POP MLOAD SWAP2 SWAP1 POP JUMP JUMPDEST DUP1 MLOAD PUSH10 0xFFFFFFFFFFFFFFFFFFFF DUP2 AND DUP2 EQ PUSH2 0x11B6 JUMPI PUSH1 0x0 DUP1 REVERT JUMPDEST PUSH1 0x0 DUP1 PUSH1 0x0 DUP1 PUSH1 0x0 PUSH1 0xA0 DUP7 DUP9 SUB SLT ISZERO PUSH2 0x13FC JUMPI PUSH1 0x0 DUP1 REVERT JUMPDEST PUSH2 0x1405 DUP7 PUSH2 0x13CA JUMP JUMPDEST SWAP5 POP PUSH1 0x20 DUP7 ADD MLOAD SWAP4 POP PUSH1 0x40 DUP7 ADD MLOAD SWAP3 POP PUSH1 0x60 DUP7 ADD MLOAD SWAP2 POP PUSH2 0x1428 PUSH1 0x80 DUP8 ADD PUSH2 0x13CA JUMP JUMPDEST SWAP1 POP SWAP3 SWAP6 POP SWAP3 SWAP6 SWAP1 SWAP4 POP JUMP JUMPDEST PUSH1 0x1 DUP2 DUP2 JUMPDEST DUP1 DUP6 GT ISZERO PUSH2 0x146F JUMPI DUP2 PUSH1 0x0 NOT DIV DUP3 GT ISZERO PUSH2 0x1455 JUMPI PUSH2 0x1455 PUSH2 0x12B7 JUMP JUMPDEST DUP1 DUP6 AND ISZERO PUSH2 0x1462 JUMPI SWAP2 DUP2 MUL SWAP2 JUMPDEST SWAP4 DUP5 SHR SWAP4 SWAP1 DUP1 MUL SWAP1 PUSH2 0x1439 JUMP JUMPDEST POP SWAP3 POP SWAP3 SWAP1 POP JUMP JUMPDEST PUSH1 0x0 DUP3 PUSH2 0x1486 JUMPI POP PUSH1 0x1 PUSH2 0x665 JUMP JUMPDEST DUP2 PUSH2 0x1493 JUMPI POP PUSH1 0x0 PUSH2 0x665 JUMP JUMPDEST DUP2 PUSH1 0x1 DUP2 EQ PUSH2 0x14A9 JUMPI PUSH1 0x2 DUP2 EQ PUSH2 0x14B3 JUMPI PUSH2 0x14CF JUMP JUMPDEST PUSH1 0x1 SWAP2 POP POP PUSH2 0x665 JUMP JUMPDEST PUSH1 0xFF DUP5 GT ISZERO PUSH2 0x14C4 JUMPI PUSH2 0x14C4 PUSH2 0x12B7 JUMP JUMPDEST POP POP PUSH1 0x1 DUP3 SHL PUSH2 0x665 JUMP JUMPDEST POP PUSH1 0x20 DUP4 LT PUSH2 0x133 DUP4 LT AND PUSH1 0x4E DUP5 LT PUSH1 0xB DUP5 LT AND OR ISZERO PUSH2 0x14F2 JUMPI POP DUP2 DUP2 EXP PUSH2 0x665 JUMP JUMPDEST PUSH2 0x14FC DUP4 DUP4 PUSH2 0x1434 JUMP JUMPDEST DUP1 PUSH1 0x0 NOT DIV DUP3 GT ISZERO PUSH2 0x1510 JUMPI PUSH2 0x1510 PUSH2 0x12B7 JUMP JUMPDEST MUL SWAP4 SWAP3 POP POP POP JUMP JUMPDEST PUSH1 0x0 PUSH2 0x123C DUP4 DUP4 PUSH2 0x1477 JUMP INVALID LOG2 PUSH5 0x6970667358 0x22 SLT KECCAK256 0xC9 PUSH26 0xD9ABBCA21075F7A84D62258A613AC40336C7F20E5AAA9A93283A BALANCE 0x4A PUSH11 0x7164736F6C634300081400 CALLER "
        },
        "methodIdentifiers": {
          "MAX_RESERVE_RATIO()": "1190016c",
          "ad()": "3e1430af",
          "allowance(address,address)": "dd62ed3e",
          "approve(address,uint256)": "095ea7b3",
          "balanceOf(address)": "70a08231",
          "balances(address)": "27e235e3",
          "bondingCurveCalculations(uint256)": "e7962a80",
          "buyTokensUsingMatic(uint256)": "041e79b1",
          "buyTokensusingUSDC(uint256)": "6b2aea05",
          "calculateMaticAmount(uint256,bool)": "a9536bcb",
          "calculateUSDCAmount(uint256,bool)": "2a8038b2",
          "decimals()": "313ce567",
          "getCurrentPrice()": "eb91d37e",
          "getLatestPrice()": "8e15f473",
          "getMaticBalance()": "10ded165",
          "getUSDCBalance()": "3cfd1ccc",
          "name()": "06fdde03",
          "poolofMattic()": "35c618c3",
          "poolofUSDC(uint256)": "39f6a925",
          "reserveRatio()": "0c7d5cd8",
          "sellTokensUsingMatic(uint256)": "7a721c3c",
          "sellTokensusingUSDC(uint256)": "a31f714f",
          "supply()": "047fc9aa",
          "symbol()": "95d89b41",
          "totalSupply()": "18160ddd",
          "transfer(address,uint256)": "a9059cbb",
          "transferFrom(address,address,uint256)": "23b872dd"
        }
      }
    }
  }
}