{
  "_format": "hh-sol-artifact-1",
  "contractName": "FinalBancor",
  "sourceName": "contracts/FinalBancor.sol",
  "abi": [
    {
      "inputs": [
        {
          "internalType": "string",
          "name": "name",
          "type": "string"
        },
        {
          "internalType": "string",
          "name": "symbol",
          "type": "string"
        },
        {
          "internalType": "uint256",
          "name": "_reserveRatio",
          "type": "uint256"
        }
      ],
      "stateMutability": "nonpayable",
      "type": "constructor"
    },
    {
      "inputs": [
        {
          "internalType": "address",
          "name": "spender",
          "type": "address"
        },
        {
          "internalType": "uint256",
          "name": "allowance",
          "type": "uint256"
        },
        {
          "internalType": "uint256",
          "name": "needed",
          "type": "uint256"
        }
      ],
      "name": "ERC20InsufficientAllowance",
      "type": "error"
    },
    {
      "inputs": [
        {
          "internalType": "address",
          "name": "sender",
          "type": "address"
        },
        {
          "internalType": "uint256",
          "name": "balance",
          "type": "uint256"
        },
        {
          "internalType": "uint256",
          "name": "needed",
          "type": "uint256"
        }
      ],
      "name": "ERC20InsufficientBalance",
      "type": "error"
    },
    {
      "inputs": [
        {
          "internalType": "address",
          "name": "approver",
          "type": "address"
        }
      ],
      "name": "ERC20InvalidApprover",
      "type": "error"
    },
    {
      "inputs": [
        {
          "internalType": "address",
          "name": "receiver",
          "type": "address"
        }
      ],
      "name": "ERC20InvalidReceiver",
      "type": "error"
    },
    {
      "inputs": [
        {
          "internalType": "address",
          "name": "sender",
          "type": "address"
        }
      ],
      "name": "ERC20InvalidSender",
      "type": "error"
    },
    {
      "inputs": [
        {
          "internalType": "address",
          "name": "spender",
          "type": "address"
        }
      ],
      "name": "ERC20InvalidSpender",
      "type": "error"
    },
    {
      "anonymous": false,
      "inputs": [
        {
          "indexed": true,
          "internalType": "address",
          "name": "owner",
          "type": "address"
        },
        {
          "indexed": true,
          "internalType": "address",
          "name": "spender",
          "type": "address"
        },
        {
          "indexed": false,
          "internalType": "uint256",
          "name": "value",
          "type": "uint256"
        }
      ],
      "name": "Approval",
      "type": "event"
    },
    {
      "anonymous": false,
      "inputs": [
        {
          "indexed": true,
          "internalType": "address",
          "name": "from",
          "type": "address"
        },
        {
          "indexed": true,
          "internalType": "address",
          "name": "to",
          "type": "address"
        },
        {
          "indexed": false,
          "internalType": "uint256",
          "name": "value",
          "type": "uint256"
        }
      ],
      "name": "Transfer",
      "type": "event"
    },
    {
      "stateMutability": "payable",
      "type": "fallback"
    },
    {
      "inputs": [],
      "name": "MAX_RESERVE_RATIO",
      "outputs": [
        {
          "internalType": "uint256",
          "name": "",
          "type": "uint256"
        }
      ],
      "stateMutability": "view",
      "type": "function"
    },
    {
      "inputs": [
        {
          "internalType": "address",
          "name": "owner",
          "type": "address"
        },
        {
          "internalType": "address",
          "name": "spender",
          "type": "address"
        }
      ],
      "name": "allowance",
      "outputs": [
        {
          "internalType": "uint256",
          "name": "",
          "type": "uint256"
        }
      ],
      "stateMutability": "view",
      "type": "function"
    },
    {
      "inputs": [
        {
          "internalType": "address",
          "name": "spender",
          "type": "address"
        },
        {
          "internalType": "uint256",
          "name": "value",
          "type": "uint256"
        }
      ],
      "name": "approve",
      "outputs": [
        {
          "internalType": "bool",
          "name": "",
          "type": "bool"
        }
      ],
      "stateMutability": "nonpayable",
      "type": "function"
    },
    {
      "inputs": [
        {
          "internalType": "address",
          "name": "account",
          "type": "address"
        }
      ],
      "name": "balanceOf",
      "outputs": [
        {
          "internalType": "uint256",
          "name": "",
          "type": "uint256"
        }
      ],
      "stateMutability": "view",
      "type": "function"
    },
    {
      "inputs": [
        {
          "internalType": "address",
          "name": "",
          "type": "address"
        }
      ],
      "name": "balances",
      "outputs": [
        {
          "internalType": "uint256",
          "name": "",
          "type": "uint256"
        }
      ],
      "stateMutability": "view",
      "type": "function"
    },
    {
      "inputs": [
        {
          "internalType": "uint256",
          "name": "tokenAmount",
          "type": "uint256"
        }
      ],
      "name": "buyTokens",
      "outputs": [],
      "stateMutability": "payable",
      "type": "function"
    },
    {
      "inputs": [
        {
          "internalType": "uint256",
          "name": "tokenAmount",
          "type": "uint256"
        },
        {
          "internalType": "bool",
          "name": "buying",
          "type": "bool"
        }
      ],
      "name": "calculateEthAmount",
      "outputs": [
        {
          "internalType": "uint256",
          "name": "",
          "type": "uint256"
        }
      ],
      "stateMutability": "view",
      "type": "function"
    },
    {
      "inputs": [],
      "name": "decimals",
      "outputs": [
        {
          "internalType": "uint8",
          "name": "",
          "type": "uint8"
        }
      ],
      "stateMutability": "view",
      "type": "function"
    },
    {
      "inputs": [],
      "name": "getCurrentPrice",
      "outputs": [
        {
          "internalType": "uint256",
          "name": "",
          "type": "uint256"
        }
      ],
      "stateMutability": "view",
      "type": "function"
    },
    {
      "inputs": [
        {
          "internalType": "uint256",
          "name": "number",
          "type": "uint256"
        }
      ],
      "name": "integrate",
      "outputs": [
        {
          "internalType": "uint256",
          "name": "",
          "type": "uint256"
        }
      ],
      "stateMutability": "view",
      "type": "function"
    },
    {
      "inputs": [],
      "name": "name",
      "outputs": [
        {
          "internalType": "string",
          "name": "",
          "type": "string"
        }
      ],
      "stateMutability": "view",
      "type": "function"
    },
    {
      "inputs": [],
      "name": "reserveBalance",
      "outputs": [
        {
          "internalType": "uint256",
          "name": "",
          "type": "uint256"
        }
      ],
      "stateMutability": "view",
      "type": "function"
    },
    {
      "inputs": [],
      "name": "reserveRatio",
      "outputs": [
        {
          "internalType": "uint256",
          "name": "",
          "type": "uint256"
        }
      ],
      "stateMutability": "view",
      "type": "function"
    },
    {
      "inputs": [
        {
          "internalType": "uint256",
          "name": "number2",
          "type": "uint256"
        }
      ],
      "name": "see",
      "outputs": [
        {
          "internalType": "uint256",
          "name": "",
          "type": "uint256"
        }
      ],
      "stateMutability": "view",
      "type": "function"
    },
    {
      "inputs": [
        {
          "internalType": "uint256",
          "name": "tokenAmount",
          "type": "uint256"
        }
      ],
      "name": "sellTokens",
      "outputs": [],
      "stateMutability": "payable",
      "type": "function"
    },
    {
      "inputs": [],
      "name": "supply",
      "outputs": [
        {
          "internalType": "uint256",
          "name": "",
          "type": "uint256"
        }
      ],
      "stateMutability": "view",
      "type": "function"
    },
    {
      "inputs": [],
      "name": "symbol",
      "outputs": [
        {
          "internalType": "string",
          "name": "",
          "type": "string"
        }
      ],
      "stateMutability": "view",
      "type": "function"
    },
    {
      "inputs": [],
      "name": "totalSupply",
      "outputs": [
        {
          "internalType": "uint256",
          "name": "",
          "type": "uint256"
        }
      ],
      "stateMutability": "view",
      "type": "function"
    },
    {
      "inputs": [
        {
          "internalType": "address",
          "name": "to",
          "type": "address"
        },
        {
          "internalType": "uint256",
          "name": "value",
          "type": "uint256"
        }
      ],
      "name": "transfer",
      "outputs": [
        {
          "internalType": "bool",
          "name": "",
          "type": "bool"
        }
      ],
      "stateMutability": "nonpayable",
      "type": "function"
    },
    {
      "inputs": [
        {
          "internalType": "address",
          "name": "from",
          "type": "address"
        },
        {
          "internalType": "address",
          "name": "to",
          "type": "address"
        },
        {
          "internalType": "uint256",
          "name": "value",
          "type": "uint256"
        }
      ],
      "name": "transferFrom",
      "outputs": [
        {
          "internalType": "bool",
          "name": "",
          "type": "bool"
        }
      ],
      "stateMutability": "nonpayable",
      "type": "function"
    },
    {
      "stateMutability": "payable",
      "type": "receive"
    }
  ],
  "bytecode": "0x60806040523480156200001157600080fd5b50604051620011a7380380620011a783398101604081905262000034916200017f565b8282600362000044838262000281565b50600462000053828262000281565b505050620f4240811115620000ae5760405162461bcd60e51b815260206004820152601560248201527f496e76616c6964207265736572766520726174696f0000000000000000000000604482015260640160405180910390fd5b600655506200034d9050565b634e487b7160e01b600052604160045260246000fd5b600082601f830112620000e257600080fd5b81516001600160401b0380821115620000ff57620000ff620000ba565b604051601f8301601f19908116603f011681019082821181831017156200012a576200012a620000ba565b816040528381526020925086838588010111156200014757600080fd5b600091505b838210156200016b57858201830151818301840152908201906200014c565b600093810190920192909252949350505050565b6000806000606084860312156200019557600080fd5b83516001600160401b0380821115620001ad57600080fd5b620001bb87838801620000d0565b94506020860151915080821115620001d257600080fd5b50620001e186828701620000d0565b925050604084015190509250925092565b600181811c908216806200020757607f821691505b6020821081036200022857634e487b7160e01b600052602260045260246000fd5b50919050565b601f8211156200027c57600081815260208120601f850160051c81016020861015620002575750805b601f850160051c820191505b81811015620002785782815560010162000263565b5050505b505050565b81516001600160401b038111156200029d576200029d620000ba565b620002b581620002ae8454620001f2565b846200022e565b602080601f831160018114620002ed5760008415620002d45750858301515b600019600386901b1c1916600185901b17855562000278565b600085815260208120601f198616915b828110156200031e57888601518255948401946001909101908401620002fd565b50858210156200033d5787850151600019600388901b60f8161c191681555b5050505050600190811b01905550565b610e4a806200035d6000396000f3fe6080604052600436106101175760003560e01c80634cc407501161009a578063a10954fe11610061578063a10954fe146102f7578063a9059cbb1461030d578063dd62ed3e1461032d578063ea7a7aba14610373578063eb91d37e1461039357005b80634cc40750146102595780636c11bcd31461027957806370a082311461028c5780638914b42a146102c257806395d89b41146102e257005b806318160ddd116100de57806318160ddd146101c857806323b872dd146101dd57806327e235e3146101fd578063313ce5671461022a5780633610724e1461024657005b8063047fc9aa1461012057806306fdde0314610149578063095ea7b31461016b5780630c7d5cd81461019b5780631190016c146101b157005b3661011e57005b005b34801561012c57600080fd5b5061013660075481565b6040519081526020015b60405180910390f35b34801561015557600080fd5b5061015e6103a8565b6040516101409190610b02565b34801561017757600080fd5b5061018b610186366004610b6c565b61043a565b6040519015158152602001610140565b3480156101a757600080fd5b5061013660065481565b3480156101bd57600080fd5b50610136620f424081565b3480156101d457600080fd5b50600254610136565b3480156101e957600080fd5b5061018b6101f8366004610b96565b610454565b34801561020957600080fd5b50610136610218366004610bd2565b60086020526000908152604090205481565b34801561023657600080fd5b5060405160128152602001610140565b61011e610254366004610bf4565b610478565b34801561026557600080fd5b50610136610274366004610c0d565b610554565b61011e610287366004610bf4565b6105ba565b34801561029857600080fd5b506101366102a7366004610bd2565b6001600160a01b031660009081526020819052604090205490565b3480156102ce57600080fd5b506101366102dd366004610bf4565b610695565b3480156102ee57600080fd5b5061015e6106fa565b34801561030357600080fd5b5061013660055481565b34801561031957600080fd5b5061018b610328366004610b6c565b610709565b34801561033957600080fd5b50610136610348366004610c42565b6001600160a01b03918216600090815260016020908152604080832093909416825291909152205490565b34801561037f57600080fd5b5061013661038e366004610bf4565b610717565b34801561039f57600080fd5b5061013661073f565b6060600380546103b790610c75565b80601f01602080910402602001604051908101604052809291908181526020018280546103e390610c75565b80156104305780601f1061040557610100808354040283529160200191610430565b820191906000526020600020905b81548152906001019060200180831161041357829003601f168201915b5050505050905090565b6000336104488185856107a9565b60019150505b92915050565b6000336104628582856107b6565b61046d858585610834565b506001949350505050565b6000610485826001610554565b9050803410156104d15760405162461bcd60e51b8152602060048201526012602482015271496e73756666696369656e742046756e647360701b60448201526064015b60405180910390fd5b6104db3383610893565b33600090815260086020526040812080548492906104fa908490610cc5565b9250508190555081600760008282546105139190610cc5565b909155503390506108fc6105278334610cd8565b6040518115909202916000818181858888f1935050505015801561054f573d6000803e3d6000fd5b505050565b60008080831561058357610569600754610695565b915061057c856007546102dd9190610cc5565b90506105a4565b61058e600754610695565b90506105a1856007546102dd9190610cd8565b91505b60006105b08383610cd8565b9695505050505050565b60006105c7826000610554565b336000908152600860205260409020549091508211156106215760405162461bcd60e51b8152602060048201526015602482015274496e73756666696369656e742042616c616e63657360581b60448201526064016104c8565b61062b33836108cd565b336000908152600860205260408120805484929061064a908490610cd8565b9250508190555081600760008282546106639190610cd8565b9091555050604051339082156108fc029083906000818181858888f1935050505015801561054f573d6000803e3d6000fd5b600080600160065460646106a99190610ceb565b6106b39190610cd8565b905060006006548460016106c79190610cc5565b6106d18487610df1565b6106db9190610dfd565b6106e59190610dfd565b90506106f2606482610ceb565b949350505050565b6060600480546103b790610c75565b600033610448818585610834565b6000816001600654606461072b9190610ceb565b6107359190610cd8565b61044e9190610df1565b600080600160065460646107539190610ceb565b61075d9190610cd8565b9050600060065460075460016107739190610cc5565b836007546107819190610df1565b61078b9190610dfd565b6107959190610dfd565b90506107a2606482610ceb565b9250505090565b61054f8383836001610903565b6001600160a01b03838116600090815260016020908152604080832093861683529290522054600019811461082e578181101561081f57604051637dc7a0d960e11b81526001600160a01b038416600482015260248101829052604481018390526064016104c8565b61082e84848484036000610903565b50505050565b6001600160a01b03831661085e57604051634b637e8f60e11b8152600060048201526024016104c8565b6001600160a01b0382166108885760405163ec442f0560e01b8152600060048201526024016104c8565b61054f8383836109d8565b6001600160a01b0382166108bd5760405163ec442f0560e01b8152600060048201526024016104c8565b6108c9600083836109d8565b5050565b6001600160a01b0382166108f757604051634b637e8f60e11b8152600060048201526024016104c8565b6108c9826000836109d8565b6001600160a01b03841661092d5760405163e602df0560e01b8152600060048201526024016104c8565b6001600160a01b03831661095757604051634a1406b160e11b8152600060048201526024016104c8565b6001600160a01b038085166000908152600160209081526040808320938716835292905220829055801561082e57826001600160a01b0316846001600160a01b03167f8c5be1e5ebec7d5bd14f71427d1e84f3dd0314c0f7b2291e5b200ac8c7c3b925846040516109ca91815260200190565b60405180910390a350505050565b6001600160a01b038316610a035780600260008282546109f89190610cc5565b90915550610a759050565b6001600160a01b03831660009081526020819052604090205481811015610a565760405163391434e360e21b81526001600160a01b038516600482015260248101829052604481018390526064016104c8565b6001600160a01b03841660009081526020819052604090209082900390555b6001600160a01b038216610a9157600280548290039055610ab0565b6001600160a01b03821660009081526020819052604090208054820190555b816001600160a01b0316836001600160a01b03167fddf252ad1be2c89b69c2b068fc378daa952ba7f163c4a11628f55a4df523b3ef83604051610af591815260200190565b60405180910390a3505050565b600060208083528351808285015260005b81811015610b2f57858101830151858201604001528201610b13565b506000604082860101526040601f19601f8301168501019250505092915050565b80356001600160a01b0381168114610b6757600080fd5b919050565b60008060408385031215610b7f57600080fd5b610b8883610b50565b946020939093013593505050565b600080600060608486031215610bab57600080fd5b610bb484610b50565b9250610bc260208501610b50565b9150604084013590509250925092565b600060208284031215610be457600080fd5b610bed82610b50565b9392505050565b600060208284031215610c0657600080fd5b5035919050565b60008060408385031215610c2057600080fd5b8235915060208301358015158114610c3757600080fd5b809150509250929050565b60008060408385031215610c5557600080fd5b610c5e83610b50565b9150610c6c60208401610b50565b90509250929050565b600181811c90821680610c8957607f821691505b602082108103610ca957634e487b7160e01b600052602260045260246000fd5b50919050565b634e487b7160e01b600052601160045260246000fd5b8082018082111561044e5761044e610caf565b8181038181111561044e5761044e610caf565b600082610d0857634e487b7160e01b600052601260045260246000fd5b500490565b600181815b80851115610d48578160001904821115610d2e57610d2e610caf565b80851615610d3b57918102915b93841c9390800290610d12565b509250929050565b600082610d5f5750600161044e565b81610d6c5750600061044e565b8160018114610d825760028114610d8c57610da8565b600191505061044e565b60ff841115610d9d57610d9d610caf565b50506001821b61044e565b5060208310610133831016604e8410600b8410161715610dcb575081810a61044e565b610dd58383610d0d565b8060001904821115610de957610de9610caf565b029392505050565b6000610bed8383610d50565b808202811582820484141761044e5761044e610caf56fea2646970667358221220e5c3cd9e4c79bb809997e54663cc9b26c55d7b59593f0b7e16750fca3956337064736f6c63430008140033",
  "linkReferences": {},
  "deployedLinkReferences": {}
}